:020000040800F2
:10000000801A02204D030008A9550008F94800088D
:1000100069550008210F0008537C0008000000000B
:100020000000000000000000000000009502000831
:10003000D934000800000000E90200088D6E0008B5
:1000400071030008710300087103000871030008C0
:1000500071030008710300087103000871030008B0
:1000600071030008710300087103000871030008A0
:100070007103000871030008710300087103000890
:100080007103000871030008710300087103000880
:100090005D0F000871030008710300087103000878
:1000A0007103000871030008710300087103000860
:1000B00071030008296F000871030008710300082C
:1000C0007103000871030008710300087103000840
:1000D0007103000805780008710300087103000827
:1000E0007103000871030008710300087103000820
:1000F0007103000871030008710300087103000810
:1001000071030008710300087103000871030008FF
:1001100071030008710300083970000871030008BA
:1001200071030008710300087103000871030008DF
:1001300071030008710300087103000871030008CF
:100140009D11000871030008710300087103000885
:10015000710300087103000871030008E9780008C2
:10016000710300087103000871030008710300089F
:10017000710300087103000871030008000000000B
:1001800071030008710300081D770008710300085F
:10019000710300087103000871030008710300086F
:1001A00000000000000000007103000800F002F8E9
:1001B00000F061F80AA090E8000C82448344AAF1A0
:1001C0000107DA4501D100F056F8AFF2090EBAE89E
:1001D0000F0013F0010F18BFFB1A43F0010318477B
:1001E00048190100681901000A444FF0000C10F88A
:1001F000013B13F0070408BF10F8014B1D1108BFA5
:1002000010F8015B641E05D010F8016B641E01F844
:10021000016BF9D113F0080F1EBF10F8014BAD1C94
:100220000C1B09D16D1E58BF01F801CBFAD505E0B2
:1002300014F8016B01F8016B6D1EF9D59142D6D30C
:10024000704700000023002400250026103A28BF34
:1002500078C1FBD8520728BF30C148BF0B60704738
:10026000642900F04181002070471FB50FF012FE95
:100270001FBD10B510BD00F031FC1146FFF7F5FFB2
:100280000AF01EFD00F04FFC03B4FFF7F2FF03BCC1
:1002900008F049FF2A4B19680868B0E8F04F80F36E
:1002A0000988BFF36F8F4FF0000080F3118870470B
:1002B0000000000006480068006880F3088862B605
:1002C00061B6BFF34F8FBFF36F8F00DF00BF00BF7A
:1002D00008ED00E0DFF80C00016841F470010160F6
:1002E000704700BF88ED00E0EFF30980BFF36F8F28
:1002F000134B1A681EF0100F08BF20ED108A20E97A
:10030000F04F106008B44FF0500080F31188BFF335
:100310004F8FBFF36F8F0DF045FB4FF0000080F360
:10032000118808BC19680868B0E8F04F1EF0100F7B
:1003300008BFB0EC108A80F30988BFF36F8F704755
:1003400024000020EFF30580704700000C4801688E
:1003500041F4700101600B4880470B480047FEE7FD
:10036000FEE7FEE7FEE7FEE7FEE7FEE7FEE7FEE765
:10037000FEE7000005480649044A064B70470000A6
:1003800088ED00E09D6E0008AD0100088016022097
:10039000801A0220801602209FED1A1AF5EE000A3C
:1003A00040EE010ABDEEE00AF5EEC00A10EE100ABA
:1003B000F1EE10FA38BF401E00EE100A1349F7EEB6
:1003C000001AB8EEC00A30EEC00ADFED0F0A20EEC8
:1003D000200AFCEEC00A10EE900AC0F3080000EEFE
:1003E000900A01EB8000F8EE600A90ED011A70EEC1
:1003F000600A90ED000A71EEE01A21EE800A00EE2C
:10040000810A704783F9223E00000044B0100108C1
:10041000DFED190AB5EEC00A60EE200ABDEEE01A63
:1004200011EE100AF1EE10FA38BF401E00EE100A6D
:100430001349F7EE001AB8EEC00A30EEC00ADFED3D
:100440000F0A60EE200ABCEEE00A10EE100AC0F3BC
:10045000080000EE100A01EB8000B8EE400A90EDB3
:10046000011A70EEC00A90ED000A71EEE01A21EE5A
:10047000800A00EE810A704783F9223E00000044A2
:10048000B0100108704710B54C1084EA530404D52D
:100490004042C1F1000138BF491E1B4204D55242FF
:1004A000C3F1000338BF5B1E00F0BCF914F0804FAD
:1004B00004D04042C1F1000138BF491E14F0004F82
:1004C00004D05242C3F1000338BF5B1E10BD0000D0
:1004D0000FB4044910B503AA029800F097FA10BCB3
:1004E0005DF814FB300100202DE9F04106460024A0
:1004F00010687529314616A510D0AFF3008000288A
:1005000002DA404213A507E031688A0701D512A537
:1005100002E0490704D511A5012401E0AFF30080F2
:1005200000210A2206F1240709E0B0FBF2FCB0FB2F
:10053000F2F302FB1C00303078541846491C0028A6
:10054000F3D123462A463046BDE8F04100F0ECB92D
:10055000000000002D0000002B0000002000000023
:100560002DE9F05F894604464FF0000ADFF824B118
:10057000FB44C0F820A02046E168884700287DD0D1
:10058000252806D0D4E901219047206A401C20622A
:10059000F1E700255F462046E168884720280646A7
:1005A00007DB312E05D2B81910F8200C08B105432D
:1005B000F1E7A80701D525F00405C4F81CA0002721
:1005C000C4F818A02A2E09D0304608F0A5FD38B38B
:1005D00004EB8708303EC8F8186019E059F8041B8E
:1005E000204604EB87029161E1688847012F0646A7
:1005F00018D1E069002820DA25F020051DE0D8F8A0
:10060000180000EB800006EB40003038C8F81800F6
:100610002046E1688847064608F07EFD0028EED1B6
:10062000012F0AD02E2E08D12046E16888477F1C72
:100630000646022F45F02005C4DBA069002803DA36
:10064000404245F00105A061E80701D025F0100502
:10065000A6B1A6F14100192802D8203645F400655C
:100660004A463146204625604D46FFF7F9FD60B108
:10067000012807D0ED1D25F0070000E007E000F19C
:10068000080978E705F1040975E730467AE7206A3A
:10069000BDE8F09F4013010040EA010310B59B073D
:1006A0000FD1042A0DD310C808C9121F9C42F8D0DC
:1006B00020BA19BA884201D9012010BD4FF0FF308D
:1006C00010BD1AB1D30703D0521C07E0002010BDA3
:1006D00010F8013B11F8014B1B1B07D110F8013B2F
:1006E00011F8014B1B1B01D1921EF1D1184610BD10
:1006F000032A40F2308010F0030C00F0158011F84E
:10070000013BBCF1020F624498BF11F801CB00F825
:10071000013B38BF11F8013BA2F1040298BF00F879
:1007200001CB38BF00F8013B11F0030300F08081DA
:10073000083AC0F0088051F8043B083A51F804CB5D
:10074000A0E80810F5E7121D5CBF51F8043B40F823
:10075000043BAFF30080D20724BF11F8013B11F82E
:1007600001CB48BF11F8012B24BF00F8013B00F872
:1007700001CB48BF00F8012B704702F0FF0343EAAA
:10078000032242EA024200F002B84FF000020429BC
:10079000C0F0128010F0030C00F01B80CCF1040CB0
:1007A000BCF1020F18BF00F8012BA8BF20F8022BE4
:1007B000A1EB0C0100F00DB85FEAC17C24BF00F88A
:1007C000012B00F8012B48BF00F8012B70474FF0B8
:1007D000000200B5134694469646203922BFA0E891
:1007E0000C50A0E80C50B1F12001BFF4F7AF09079D
:1007F00028BFA0E80C5048BF0CC05DF804EB89008E
:1008000028BF40F8042B08BF704748BF20F8022BD0
:1008100011F0804F18BF00F8012B704770477047E8
:100820007047704753EA020C00F069802DE9F04BE5
:100830004FF00006002B1FBFB3FA83F503FA05F44F
:1008400024FA05F65E4012BF1643B2FA82F502FAA8
:1008500005F4C5F120051EBF22FA05FC44EA0C048C
:10086000203556EA044C4FEA144418BF641C4FF07C
:1008700000084FF00009904271EB030C39D30029B6
:1008800019BFB1FA81F701FA07F6B0FA80F700FA5A
:1008900007F6C7F120071EBF20FA07FC46EA0C0640
:1008A0002037B6FBF4FCA7EB0507103F07F01F0B42
:1008B000CBF120060CFA0BFB2CFA06F644BFB3462C
:1008C0000026202FA4BF5E464FF0000B5BEA060C0B
:1008D00008BF4FF0010B19EB0B09ABFB027C48EB97
:1008E0000608C01B06FB02CC0BFB03CC71EB0C0112
:1008F000C1E70B46024641464846BDE8F08B13B5BA
:100900004FF000004FF00001AFF30080BDE81C4045
:10091000704710B500F0BEF8006810BD10B5044671
:1009200000F0B8F8046010BD2DE9F0470D46994677
:100930009246044600F124080168880604D5E0695F
:1009400021F01001216000E00120A84201DD471BD9
:1009500000E00027A1697A1902EB0900081AA061DA
:100960002078C00602D42046AFF30080002608E0BD
:10097000D4E901211AF806009047206A401C761C31
:1009800020624E45F4DB2078C0060AD52046AFF33E
:10099000008006E0D4E9012130209047206A401C05
:1009A0002062381EA7F10107F4DC07E0D4E9012139
:1009B00018F805009047206A401C2062281EA5F107
:1009C0000105F3DC2046AFF300802078000602D555
:1009D0000220BDE8F0870120FBE7000001694A1C06
:1009E00002610878704700B58FB0CDE90131002170
:1009F000059105497944CDE9031011466846FFF792
:100A0000AFFD0FB000BD0000E5FFFFFF074B70B565
:100A10000D467B44FFF7E7FF0446284600F056F8F2
:100A200010B14FF0FF3070BD204670BD5B990000E3
:100A300010B5203AC0F00B80B1E81850203AA0E879
:100A40001850B1E81850A0E81850BFF4F5AF5FEAAD
:100A5000027C24BFB1E81850A0E8185044BF18C960
:100A600018C0BDE810405FEA827C24BF51F8043B07
:100A700040F8043B08BF7047D20728BF31F8023B5B
:100A800048BF11F8012B28BF20F8023B48BF00F8EF
:100A9000012B704700487047201602201FB584B014
:100AA00000200A9C06AB04AA02A90094AFF30080C0
:100AB00018B1DDE9020108B010BD0348204000F084
:100AC0003BF800200146F6E70000207C007B00F0A8
:100AD0008000704700487047201602207546FFF7D7
:100AE000F9FFAE4605006946534620F007008546EB
:100AF00018B020B5FFF73EFCBDE820404FF00006DF
:100B00004FF000074FF000084FF0000B21F00701F5
:100B1000AC46ACE8C009ACE8C009ACE8C009ACE838
:100B2000C0098D46704710B50446AFF300802046DB
:100B3000BDE81040FFF7A8BB10B500F009F8BDE80C
:100B40001040AFF30080002801D008F0ECBA7047E5
:100B500010B5022803D0410103D50DA112E00020F9
:100B600010BD010101D50FA10CE0C10001D511A1FB
:100B700008E0810001D512A104E0400001D513A1D5
:100B800000E0002115A000F039F8012010BD0000A0
:100B9000496E76616C6964204F7065726174696F2B
:100BA0006E000000446976696465204279205A65C8
:100BB000726F00004F766572666C6F770000000000
:100BC000556E646572666C6F77000000496E6578DB
:100BD00061637420526573756C7400005349474615
:100BE00050453A2041726974686D65746963206587
:100BF0007863657074696F6E3A20000070B50546C1
:100C00000C460A2000E06D1C08F091FA35B12878F6
:100C10000028F8D102E0641C08F089FA14B12078A9
:100C20000028F8D1BDE870400A2008F080BA21B150
:100C3000826842F00102826003E0826822F00102D1
:100C4000826070470021084A1168084A1140D0E9C3
:100C500000231A4383681A43C3681A431143044AA2
:100C6000C2F804137047000004230140E030FCFF89
:100C70000020014030B50246002000235068104C8F
:100C800020400D790C6844EA0524204350609068A8
:100C90000C4C2040D1E903542C438D682C434D79F2
:100CA00044EA450420439060D06A20F470000C7D33
:100CB000641EE4B2234340EA0350D06230BD00001A
:100CC000FFFEFFFCFDF7FFC0F0B504460D46002017
:100CD0000021092D11DDE068A5F10A0606EB4607A3
:100CE000072606FA07F18843A5F10A0606EB460631
:100CF00003FA06F10843E0600CE0206905EB4507C4
:100D0000072606FA07F1884305EB450603FA06F1C4
:100D100008432061072A0FDA606B561E06EB860730
:100D20001F2606FA07F18843561E06EB860605FACB
:100D300006F10843606322E00D2A0FDA206BD61F0C
:100D400006EB86071F2606FA07F18843D61F06EB37
:100D5000860605FA06F10843206310E0E06AA2F176
:100D60000D0606EB86071F2606FA07F18843A2F157
:100D70000D0606EB860605FA06F10843E062F0BDB3
:100D800038B10849096841F40001074AC2F8041360
:100D900006E00449096821F40001034AC2F804137B
:100DA00070470000042301400020014010B52DEDE4
:100DB000048B1B4890ED000AB1EE400A194880ED03
:100DC000000A00680EF0B0FF41EC190BB0EE490AC2
:100DD000F0EE690A07F070FCB0EE408AF0EE608A2F
:100DE00051EC180B0DF078FC0F4908600D480068B5
:100DF0000EF09AFF41EC190BB0EE490AF0EE690AC9
:100E000007F0CAFCB0EE408AF0EE608A51EC180B95
:100E10000DF062FC05490860BDEC048B10BD0000BC
:100E2000B4140220A0010020A4010020A801002089
:100E300038B54FF4407004F0F5FB4FF47A7008F0C9
:100E4000B1FB09F0A5FE0CF0A3F80BF093F809F044
:100E50009DFA5A2147F2305008F0EEF909F070FE81
:100E60005A214EF6602006F0F9F806F075F806F003
:100E700031F904F07BFB002005231A460121009084
:100E800000F004F9002005231A460121009000F02B
:100E900033FA002408E020460BF0A0F840F2C52009
:100EA00008F0DEFB601CC4B2042CF4DB0BF090FEF7
:100EB0004FF4E1300CF052F94FF4E1300CF092F8BD
:100EC00004F07AF81FE00DF0B3F911490860084604
:100ED000006810490968884215D30D4800686430DD
:100EE0000C4908600C48B0F90000022805DB00201E
:100EF0000A4908700849088005E007480088401C36
:100F000000B2054908800AF04BF80028DBD138BD53
:100F10009C000020A0000020A400002098000020D9
:100F200000BFFEE710B586B004464FF40470019090
:100F300000208DF80C008DF80D0008208DF80E00B3
:100F400020128DF80F008DF8104001A9024800F022
:100F50004EFD06B010BD000000640040F0B585B045
:100F60000221484800F0A8FB40B10221454800F0AA
:100F7000CBFA6A460021434800F0C1FC40F203214D
:100F80000098884213D19DF80C009DF80B1040EAA0
:100F9000012005B2284605F0D1F89DF80E109DF805
:100FA0000D0041EA002004B2204605F0CDF840F2E1
:100FB00009210098884220D19DF80C009DF80B1063
:100FC00040EA012005B22946002003F0E7FA9DF827
:100FD0000E109DF80D0041EA002004B221460020C9
:100FE00003F012FB9DF810109DF80F0041EA00205D
:100FF00006B23146002003F037FB40F20A21009888
:10100000884220D19DF80C009DF80B1040EA012089
:1010100005B22946012003F0C1FA9DF80E109DF893
:101020000D0041EA002004B22146012003F0ECFA51
:101030009DF810109DF80F0041EA002006B23146DD
:10104000012003F011FB40F211210098884216D1D3
:101050009DF811109DF8120041EA002000B200EE48
:10106000100AB8EEC00ADFED080A80EE201ABDEEC5
:10107000C10A10EE100A07B2384600F06DFE05B046
:10108000F0BD0000006400400000C8422DE9F041BE
:101090008AB004460D4616461F46DDF84080012101
:1010A000082004F04DFC0121480604F059FC012100
:1010B000480604F065FC00214FF0007004F060FC6D
:1010C0000320089002208DF8240000208DF82600CF
:1010D00003208DF8250001208DF8270008A92D4850
:1010E00003F022FB092200212A4803F065FB0922B4
:1010F0000121284803F060FB00208DF81A00012030
:101100008DF81B0000208DF81C008DF81D008DF857
:101110001E008DF81F008DF816808DF817408DF891
:1011200018608DF81950ADF8147005A91A4800F030
:101130005CFB00208DF80E008DF80F0001208DF86B
:1011400010000020ADF80400ADF80600ADF808006E
:10115000ADF80A00ADF80C0001208DF8110001A8CF
:1011600000F026FA012202210B4800F035FB142082
:101170008DF8000004208DF8010000208DF8020099
:1011800001208DF80300684604F010FA00200AB030
:10119000BDE8F081000C02400064004070B586B0EC
:1011A0000221544800F088FA00287CD002215148DE
:1011B00000F0AAF901AA00214E4800F0A0FB40F27D
:1011C00005210198884220D19DF810009DF80F104C
:1011D00040EA012005B22946002000F09FFD9DF85D
:1011E00012109DF8110041EA002004B221460020AF
:1011F00000F0A0FD9DF814109DF8130041EA0020B6
:1012000006B23146002000F08FFD40F20621019821
:10121000884220D19DF810009DF80F1040EA01206F
:1012200005B22946012000F079FD9DF812109DF8C5
:10123000110041EA002004B22146012000F07AFDAD
:101240009DF814109DF8130041EA002006B23146C3
:10125000012000F069FD40F207210198884220D169
:101260009DF810009DF80F1040EA012005B22946B4
:10127000022000F053FD9DF812109DF8110041EA84
:10128000002004B22146022000F054FD9DF8141005
:101290009DF8130041EA002006B23146022000F01A
:1012A00043FD019800E023E0B0F5027F20D19DF8D6
:1012B00010009DF80F1040EA012005B229460320D6
:1012C00000F02CFD9DF812109DF8110041EA00205D
:1012D00004B22146032000F02DFD9DF814109DF866
:1012E000130041EA002006B23146032000F01CFD45
:1012F00006B070BD006800402DE9F0418AB0044698
:101300000D4616461F46DDF840800121022004F0FC
:1013100017FB0121880604F023FB0121880604F055
:101320002FFB00214FF0806004F02AFB4FF4405067
:10133000089002208DF8240000208DF8260003205C
:101340008DF8250001208DF8270008A92D4803F00D
:10135000EBF909220C212B4803F02EFA09220D216A
:10136000284803F029FA00208DF81A0001208DF892
:101370001B0000208DF81C008DF81D008DF81E004C
:101380008DF81F008DF816808DF817408DF81860C5
:101390008DF81950ADF8147005A91B4800F025FA16
:1013A0000E208DF80E0000208DF80F0001208DF822
:1013B00010000020ADF80400ADF80600ADF80800FC
:1013C000ADF80A00ADF80C0001208DF8110001A85D
:1013D00000F0EEF8012202210B4800F0FDF9402058
:1013E0008DF8000004208DF8010000208DF8020027
:1013F00001208DF80300684604F0D8F800200AB0F8
:10140000BDE8F0810004024000680040F0B585B0FE
:1014100004460D4616461F4640F2FF10009000207D
:101420008DF808008DF8090008208DF80A00200AC0
:101430008DF80B00E1B28DF80C10290A8DF80D1013
:10144000E9B28DF80E10310A8DF80F10F1B28DF857
:101450001010390A8DF81110F9B28DF81210694682
:10146000024800F0C4FA05B0F0BD0000006800407A
:101470002DE9F04104460D4616461F4640F2FF2076
:101480000C49086000200872487208208872200AFF
:10149000C87208460473290A417385730021C17319
:1014A0000174417481740146034800F0A0FABDE85C
:1014B000F0810000280D0220006400402DE9F04179
:1014C00004460D4616461F464FF400700C4908604E
:1014D00000200872487208208872200AC8720846E4
:1014E0000473290A41738573310AC1730674390A7A
:1014F000417487740146034800F079FABDE8F08131
:101500003C0D022000640040B1F5007F3AD00FDCB2
:10151000202928D006DC01291CD004291DD0082947
:1015200040D11DE0402921D0B1F5807F3AD126E09D
:10153000B1F5004F31D006DCB1F5806F25D0B1F5A3
:10154000006F2FD124E0B1F5803F12D0B1F5003FFC
:1015500028D111E0154A826025E00822C26022E00D
:101560001022C2601FE0082202611CE0102202610A
:1015700019E00822426016E01022426013E00422C3
:10158000426010E0042242600DE0042242600AE062
:10159000002282610422426005E00022826104226E
:1015A000426000E000BF00BF704700000101010081
:1015B00010B50021837A012202FA03F13D4A126834
:1015C00042F001023B4B1A603A4A1C3212688A43CD
:1015D000384B1C331A60027BCAB9364A0C32126887
:1015E0008A43344B0C331A604288C38842EA03436F
:1015F000304A4032847A42F834300288838842EAA2
:1016000003432C4A4032847A02EBC4025360027BCB
:10161000012A19D1274A0C3212680A43254B0C3390
:101620001A604288038842EA0343224A4032847A9D
:1016300042F83430C288838842EA03431D4A40326C
:10164000847A02EBC4025360C27A3AB9194A121D75
:1016500012688A43174B1B1D1A6006E0154A121DBB
:1016600012680A43134B1B1D1A60028932B9114AD2
:10167000143212688A430F4B14331A600289012A0C
:1016800006D10C4A143212680A430A4B14331A600A
:10169000427B012A06D1074A1C3212680A43054BD5
:1016A0001C331A60034A126822F00102014B1A60CF
:1016B00010BD00000066004070B504460D460026CF
:1016C00060692840002871D0B5F5807F5CD010DCBF
:1016D000082D35D006DC012D20D0022D24D0042D7C
:1016E00072D127E0102D31D0202D35D0402D6BD177
:1016F00038E0B5F5004F60D009DCB5F5007F49D082
:10170000B5F5806F4CD0B5F5006F5DD14FE0B5F504
:10171000803F2DD0B5F5003F56D12FE0A0682D4970
:1017200001F0AAFD064651E0E068032101F0A4FDA6
:1017300006464BE0E068082101F09EFD064645E0C4
:10174000E068102101F098FD06463FE02069032182
:1017500001F092FD064639E02069082101F08CFD78
:10176000064633E02069102101F086FD06462DE093
:101770006068082101F080FD064627E060681021BE
:1017800001F07AFD064621E0A069012101F074FD17
:1017900006461BE0A069022101F06EFD064615E039
:1017A000A069042101F068FD06460FE00FE0A06982
:1017B000702101F061FD064608E06068042101F037
:1017C0005BFD064602E0FFE7002600BF00E00026C2
:1017D000304670BD010101001AB143690B434361FA
:1017E00002E043698B434361704730B502460020F5
:1017F0000023146824F002041460146844F0010407
:10180000146000E05B1C546804F001041CB94FF63E
:10181000FF74A342F6D1546804F001040CB900200F
:101820006CE08C79012C04D1146844F080041460BD
:1018300003E0146824F080041460CC79012C04D1F6
:10184000146844F04004146003E0146824F0400479
:1018500014600C7A012C04D1146844F02004146044
:1018600003E0146824F0200414604C7A012C04D1A5
:10187000146844F01004146003E0146824F01004A9
:1018800014608C7A012C04D1146844F008041460AC
:1018900003E0146824F008041460CC7A012C04D10D
:1018A000146844F00404146003E0146824F0040491
:1018B00014608C78A407CD7844EA05640D7944EA75
:1018C00005444D7944EA05540D886D1E2C43D461BE
:1018D000146824F001041460002300E05B1C5468C9
:1018E00004F001041CB14FF6FF74A342F6D1546812
:1018F00004F001040CB1002000E0012030BD10B55F
:1019000000F5D87303EB01131B6803F00403137293
:10191000137A53B900F5D87303EB01131B6840F237
:10192000FF7404EA5353136009E000F5D87303EB26
:1019300001131B686FF0604404EAD303536000F5A1
:10194000D87303EB01131B6803F00203537200F515
:10195000D87303EB01135B6803F00F03937200F578
:10196000D87303EB01135B681B0AD37400F5D873BB
:1019700003EB01139B68D37200F5D87303EB0113DB
:101980009B681C0A147300F5D87303EB01139B6862
:101990001C0C547300F5D87303EB01139B681B0EEA
:1019A000937300F5D87303EB0113DB68D37300F571
:1019B000D87303EB0113DB681C0A147400F5D873A9
:1019C00003EB0113DB681C0C547400F5D87303EBB4
:1019D0000113DB681B0E937421B9C36843F0200325
:1019E000C36003E0036943F02003036110BD10B539
:1019F00002460020936803F08063B3F1806F00D14A
:101A000010E0936803F00063B3F1006F01D101208F
:101A100008E0936803F08053B3F1805F01D10220A6
:101A200000E00420042874D002F5C07303EB001317
:101A30001B6803F0010402F5C07303EB00131C6084
:101A40000B7A7BB94B7A0C8843EA445302F5C07495
:101A500004EB00142468234302F5C07404EB001463
:101A6000236010E00B7A4C6843EAC4034C7A2343AA
:101A700002F5C07404EB00142468234302F5C0741B
:101A800004EB001423608B7A03F00F038B7202F5D2
:101A9000C07303EB00135B6823F00F0402F5C073FF
:101AA00003EB00135C6002F5C07303EB00135B688B
:101AB0008C7A234302F5C07404EB001463608B7BC3
:101AC0001C064B7B44EA03440B7B44EA0323CC7A99
:101AD000234302F5C07404EB0014A3608B7C1C0646
:101AE0004B7C44EA03440B7C44EA0323CC7B234332
:101AF00002F5C07404EB0014E36002F5C07303EB5D
:101B000000131B6843F0010402F5C07303EB0013DC
:101B10001C6010BD10B5114C94ED030ABDEEC00A57
:101B200010EE104A23B20D4C94ED020ABDEEC00A2D
:101B300010EE104A22B2094C94ED010ABDEEC00A23
:101B400010EE104A21B2054C94ED000ABDEEC00A19
:101B500010EE104A20B2FFF759FC10BD18110220F8
:101B600070B52DED048B04460D469FED390AB0EE9D
:101B7000408A9FED370AF0EE408A9FED350AB0EEBD
:101B8000409A07F0F1FB3348D0ED000AB0EE600A4E
:101B9000FEF73EFCB0EE408A2E48D0ED000AB0EED3
:101BA000600AFEF7F9FBF0EE408A2A4890ED030A3E
:101BB000B0EE409A284890ED000A28EE800A2748A7
:101BC000D0ED000A08EE200A234880ED000AB1EEAD
:101BD000480AD0ED000A20EE200A2048D0ED000A85
:101BE00008EEA00A80ED000A9FED1D1ADFED1D0A28
:101BF0001D4890ED000A09F033F8F0EE409AF0EE3F
:101C0000690AB0EE490A194803F016FD184880ED3C
:101C1000000A184890ED001A1748D0ED000A0E4847
:101C200090ED000A08F08EFB0B4880ED000A134887
:101C300090ED001A1248D0ED000A084890ED000A15
:101C400008F080FB054880ED000ABDEC048B70BDF8
:101C500000000000B414022074010020780100206C
:101C6000DB0F4940DB0F49C080010020C00F02207C
:101C70007C010020880100208C01002090010020C0
:101C8000940100200348007808B901207047002023
:101C9000FCE70000640100209FED0A0A0A4880ED7D
:101CA000000A9FED080A094880ED000A9FED050A29
:101CB000074880ED000A9FED030A064880ED000A00
:101CC0007047000000000000C801002074010020DF
:101CD000780100207C01002010B50D48007D00F047
:101CE000010020B10A48007D00F0200018B9002052
:101CF000084908700BE0012007490870032140F6ED
:101D0000B83000F03BFA42F2283000F089FE10BDF6
:101D10007C1502206501002064010020014A22F8A0
:101D200010107047EC010020014A22F81010704793
:101D3000F401002000EE101AB8EEC00A024A02EBCD
:101D4000800282ED000A70476810022010B541F64B
:101D50004C50FFF7E7F810BD00EE100AB8EEC00ACD
:101D6000014981ED000A70475401002010B50020A0
:101D70004E49087000241BE004EBC4014C4A02EBFE
:101D8000C100DFED4C0A9FED4C0A4C4A002103F0E4
:101D90004BFD04EBC4014A4A02EBC100DFED490AE6
:101DA0009FED490A494A002103F03EFD601CC4B280
:101DB000042CE1DBDFED460AB0EE080A454A0021BB
:101DC000454803F031FD45499FED450A454808F077
:101DD0008FFA45499FED420A444808F089FAB0EE6F
:101DE000000A434880ED000AB8EE000A414880ED41
:101DF000000AB0EE000A404880ED000AB8EE000A82
:101E00003E4880ED000A9FED3E0A3E4880ED000A04
:101E10009FED3D0A3D4880ED000A9FED3D0A3D489B
:101E200080ED000A9FED3A0A3B4880ED000A9FEDE5
:101E30003B0A3B4880ED000ABAEE040A394880EDBF
:101E4000000AB3EE020A384880ED000A9FED370A17
:101E500080ED010A9FED360A80ED020AB3EE020A18
:101E600080ED030A9FED310A80ED040A9FED300AF0
:101E700080ED050AB3EE020A80ED060A9FED2B0AFB
:101E800080ED070A9FED2A0A80ED080AB3EE020AE8
:101E900080ED090A9FED250A80ED0A0A9FED240ACC
:101EA00080ED0B0A07F02CFA10BD00006401002041
:101EB000800D02200000FA4400007A461804010850
:101EC000A00E022000007A4400401C4624040108B1
:101ED000CDCCCC3D30040108C00F02203C040108E9
:101EE0006F12033B08100220400401081810022062
:101EF000880100208C010020900100209401002026
:101F0000CDCC4C3D98010020CDCC4CBD9C01002097
:101F100000A00C46AC010020B0010020000070427F
:101F2000BC010020C4010020A81002200AD7A33D54
:101F30000000000010B556480078012804D155492A
:101F4000087000205249087000F0BAFD524800782D
:101F500007280CD2DFE800F0040C42739A768A005E
:101F600000F0AEFD0A2142F2283000F007F98DE0C2
:101F70004A48808A00F4007010B90120484908706E
:101F80004648808A00F4007098B1454800780128DE
:101F90000FD100204249087042480078401C414956
:101FA0000870087800EBD0714910A0EB41013D4A60
:101FB00011703C48007868B10120364908700A2148
:101FC00042F2283000F0DAF8322142F22830FFF7EE
:101FD000C7FD02E000203049087057E02F48808A92
:101FE00000F4807010B901202F4908702B48808AB6
:101FF00000F4807098B12C48007801280FD100209F
:102000002949087029480078401C28490870087838
:1020100000EBD0714910A0EB4101244A1170234814
:10202000007840B103201B4908700A2142F2283091
:1020300000F0A4F802E000201749087026E0FFF73E
:102040004BFE23E003F0A2F918B9002012490870F2
:102050000BE000200F490870012140F2DC5000F035
:102060008DF84FF4FA6000F0DBFC0FE001F01EFC8D
:1020700030B900200849087001200649087004E0C2
:10208000002004490870FFF707FE00BF00BF10BD25
:102090007001002064010020650100207C150220F1
:1020A000660100206701002068010020690100200E
:1020B0002DE9F0412DED0A8B05460C4616461F46CC
:1020C0009FED2B0AB0EE408AB4F900000CF0BAFF85
:1020D00041EC1C0B9FED270B53EC102B0DF026F859
:1020E00041EC1B0BB0EE4B0AF0EE6B0A06F0B8FBAE
:1020F000B0EE40AAF0EE60AA9FED1E0B53EC102B41
:1021000051EC1A0B0DF012F841EC190B0CF0E4FA3B
:1021100008EE100A012D0BD1B7EE000AB4EEC08A0A
:10212000F1EE10FA13D22088304400B220800EE085
:10213000B5EEC08AF1EE10FA09DD2088C01B00B2AE
:102140002080B4F90000002801DA00202080B7EEDA
:10215000001ADFED070AB0EE480A07F0D0F9B0EE3A
:10216000408AB0EE480ABDEC0A8BBDE8F081000061
:1021700000000000333333333333C33F30B52DED2C
:10218000108B85B004460D46B7EE000AB0EE408ACB
:1021900000EE104AB8EEC00AD04880ED000AD049DF
:1021A0000D800CF045F8CF490860CF4800680DF06D
:1021B000BBFD41EC1A0BB0EE4A0AF0EE6A0A06F0DB
:1021C000DFFAB0EE409AF0EE609A9FEDC80B53EC48
:1021D000102B51EC190B0DF048F977D2C54890ED52
:1021E000000A20EE000A10EE101A08460DF09CFDC1
:1021F00041EC190BBC4800680DF096FD41EC1F0B3B
:10220000B0EE4F0AF0EE6F0A06F0BAFAB0EE40DA1E
:10221000F0EE60DAB74800680DF086FD41EC1E0B69
:1022200053EC1D2B0DF07EFA41EC1C0B9FEDAF0B18
:1022300053EC102B0CF0B2FB41EC1A0BAA480068CF
:102240000DF072FD41EC1F0BB0EE4F0AF0EE6F0A7D
:1022500006F096FAB0EE40DAF0EE60DAA5480068D3
:102260000DF062FD41EC1E0B53EC1D2B0DF05AFAE4
:1022700041EC1C0B9FED9D0B53EC102B0CF08EFBD7
:1022800041EC1B0B53EC1A2B0CF050FF53EC192BA9
:10229000CDE900019DED000B51EC100B0CF0B0FCF2
:1022A000CDE902019DED020B51EC100B0CF014FA7C
:1022B00008EE100AB7EE001ADFED8F0AB0EE480AFA
:1022C00007F01DF9B0EE408A04E0FFE7B7EE000A20
:1022D000B0EE408A834800688849096888427DD307
:1022E000804800680A30854908608548007800B950
:1022F00000BF8448007D00F0010010B10020824939
:1023000008808048007D00F0020010B100207F4965
:1023100008807C48007D00F0080010B100207C4956
:1023200008807848007D00F0040010B10020794951
:1023300008807449097DC1F3C0004FF4FA736849FD
:1023400009880AB27149FFF7B3FE6448D0ED000A6C
:10235000F1EE600A20EE200ABDEEC00A10EE100A6F
:1023600000B200EE100AB8EEC00A6B4880ED000A19
:102370006449097DC1F380004FF4FA735849098814
:102380000AB26149FFF794FE5448D0ED000A20EEEE
:10239000200ABDEEC00A10EE100A00B200EE100ACC
:1023A000B8EEC00A5D4880ED000A5649097DC1F3C8
:1023B00040004FF4FA734A4909880AB25449FFF7BA
:1023C00077FE4648D0ED000AF1EE600A20EE200AC2
:1023D000BDEEC00A10EE100A00B200E07AE000EE96
:1023E000100AB8EEC00A4E4880ED000A4549097D42
:1023F00001F001004FF4FA73394909880AB24549DE
:10240000FFF756FE3548D0ED000A20EE200ABDEE5B
:10241000C00A10EE100A00B200EE100AB8EEC00AB0
:10242000404880ED000A36480078012852D03B48E9
:1024300090ED000A3848D0ED000A30EE200A20EE78
:10244000080AF0EE408A364890ED000A3548D0ED93
:10245000000A30EE200A20EE080AB0EE409AB0EEF4
:10246000680A314807F01AFFB0EE490A2F4807F012
:1024700015FF9FED2F0AF4EEC08AF1EE10FA0CD290
:102480009FED2C0AF4EEC08AF1EE10FA05DD9FED07
:102490001A0A10EE100A244948609FED250AB4EE8E
:1024A000C09AF1EE10FA0CD29FED220AB4EEC09A57
:1024B000F1EE10FA05DD9FED100A10EE100A1B492F
:1024C0004860194840681C490860184840681B4922
:1024D000086000BF05B0BDEC108B30BDAC01002022
:1024E000CC010020140200207C010020000000002C
:1024F00000008940B0010020000000001802002008
:10250000650100207C150220D2010020D0010020AE
:10251000D6010020D4010020D8010020DC010020D9
:10252000E0010020E4010020081002201810022021
:102530000BD7233D0BD723BD740100207801002069
:1025400010B5002000F00AF8012000F007F8022082
:1025500000F004F8032000F001F810BD10B52DEDD7
:10256000028B0446844800EB840090ED000A834807
:1025700000EB8400D0ED000A30EE600A804800EBEA
:10258000840080ED000A7F4800EB840090ED000A93
:102590007B4800EB8400D0ED000A30EE200A794839
:1025A00000EB840080ED000A754800EB840090ED9C
:1025B000000A04EB4400744901EB8000D0ED000AEE
:1025C00020EE200A714800EB840080ED000A6D487F
:1025D00000EB840090ED000A04EB440001EB800066
:1025E000D0ED010A20EE200ADFED690A20EE200A74
:1025F000684800EB840080ED000A664800EB840028
:10260000D0ED000AB0EE600A9FED631ADFED630AB9
:1026100006F075FF5F4800EB840080ED000A584823
:1026200000EB840090ED000A5D4800EB840080ED33
:10263000000A5B4800EB840090ED000A594800EB6B
:102640008400D0ED000A30EE600A04EB44004E49ED
:1026500001EB8000D0ED020A20EE200A524800EB88
:10266000840080ED000A4E4800EB840090ED000AE3
:102670004C4800EB840080ED000A444800EB8400E5
:1026800090ED000A434800EB8400D0ED000A20EEF4
:10269000200AB5EEC00AF1EE10FA33D204EB440082
:1026A00001EB800090ED010A9FED3B1AC1EE000A9C
:1026B000B1EE040A80EE801AB0EE418A04EB4400C9
:1026C00001EB8000D0ED010A9FED331A81EE200A64
:1026D000F1EE040A80EE201AB1EE410AF0EE408AD3
:1026E000284800EB8400D0ED000AB0EE600AB0EE9E
:1026F000481AF0EE680A06F002FF224800EB840058
:1027000080ED000A214800EB840090ED000A21488A
:1027100000EB8400D0ED000A30EE200A224800EBE6
:102720008400D0ED000A30EE200A204800EB84003F
:1027300080ED000A1D4800EB8400D0ED000AB0EEE9
:10274000600A1B4890ED001AD0ED000AF1EE600A15
:1027500006F0D5FE154800EB840080ED000A134812
:1027600000EB840090ED000A124800EB840080ED3D
:10277000000ABDEC028B10BD481002206810022038
:102780005810022078100220A8100220D810022031
:102790006F12033BE810022000803B4500803BC5E0
:1027A0008810022098100220F81002200811022040
:1027B000B40100201811022010B52DED088B9FEDFB
:1027C000420AB0EE408A9FED400AB0EE409A9FED7B
:1027D0003E0AF0EE408A002400BF24E03B4800EBB4
:1027E000840090ED000A10EE101A08460DF09CFAD5
:1027F00041EC1B0BB0EE4B0AF0EE6B0A05F0C0FF8C
:10280000B0EE40AAF0EE60AA51EC1A0B0BF064FF98
:1028100008EE900AB4EEE88AF1EE10FA01D2B0EEBA
:10282000688A601CC4B2042CD8DBB0EE000AB4EE97
:10283000C08AF1EE10FA17DDB0EE000AC0EE080A09
:10284000B0EE609A00240DE0204800EB840090ED8B
:10285000000A20EE090A1D4800EB840080ED000A02
:10286000601CC4B2042CEFDB002416E0174901EB16
:10287000840191ED001AF0EE410A154901EB840143
:1028800091ED001AB0EE410A04EBC401114A02EBCB
:10289000C10002F0D1FE601CC4B2042CE6DB0024AF
:1028A0000DE004EBC4000B4901EBC00090ED080AF9
:1028B000094800EB840080ED000A601CC4B2042CBF
:1028C000EFDBBDEC088B10BD0000000048100220BB
:1028D00028100220800D02201811022010B52DEDC5
:1028E000088B9FED480AB0EE408A9FED460AB0EE95
:1028F000409A9FED440AF0EE408A002400BF24E095
:10290000414800EB840090ED000A10EE101A0846D2
:102910000DF00AFA41EC1B0BB0EE4B0AF0EE6B0A1D
:1029200005F02EFFB0EE40AAF0EE60AA51EC1A0BB3
:102930000BF0D2FE08EE900AB4EEE88AF1EE10FA3F
:1029400001D2B0EE688A601CC4B2042CD8DBB0EEB1
:10295000000AB4EEC08AF1EE10FA1BDDB0EE000AF8
:10296000C0EE080AB0EE609A002411E0F0EE080A0A
:1029700089EE200A244800EB8400D0ED000A20EE06
:10298000200A214800EB840080ED000A601CC4B2DC
:10299000042CEBDB002416E01B4901EB840191EDD4
:1029A000001AF0EE410A194901EB840191ED001A79
:1029B000B0EE410A04EBC401154A02EBC10002F07B
:1029C0003BFE601CC4B2042CE6DB002415E004EBE3
:1029D000C4000F4901EBC000D0ED080AB0EE600A58
:1029E0009FED0C1ADFED0C0A06F089FD0B4800EB99
:1029F000840080ED000A601CC4B2042CE7DBBDEC4F
:102A0000088B10BD00000000481002203810022082
:102A1000A00E022000007A4500007AC5181102209D
:102A200010B52DED028B04469FED1E0AB0EE408AD4
:102A300000EE104AB8EEC00A1B4880ED000A1B48A1
:102A40000078012810D100F0FBFEB0EE408AF0EED5
:102A5000480A9FED140A164802F0EEFDB1EE400A56
:102A6000144880ED000A19E01348B0F90C0000EE9C
:102A7000900AF8EEE00A114890ED001A60EE810A23
:102A8000B0EE600A084890ED001AD0ED000AF1EEB1
:102A9000600A06F034FD074880ED000ABDEC028BA9
:102AA00010BD000000000000B00100206401002003
:102AB000C00F02207C0100207C150220BC010020F8
:102AC00010B53248808A00F4007010B901203049F6
:102AD00008702E48808A00F4807018B901202D49B2
:102AE000087052E02948808A00F48070E0B12748DD
:102AF000007D00F02000B8B926480078012813D1E5
:102B000000202449087024480078401C224908709D
:102B1000087800EBD0714910A0EB41011E4A1170FA
:102B200002201E49087030E01848007D00F00100C6
:102B300040B11648007D00F0200018B1032017496D
:102B4000087022E002F022FC18B105201349087039
:102B50001BE000F0ABFE18B106201049087014E02D
:102B60000A48007D00F0200018B100200C490870D0
:102B700002E001200A4908700A2142F22830FFF7DA
:102B8000FDFA42F22830FFF74BFF10BD7C15022002
:102B90006601002068010020690100206501002015
:102BA000640100209FED3E0A3E4880ED000A9FED43
:102BB0003C0A3D4880ED000A9FED390A3B4880ED14
:102BC000000A9FED370A3A4880ED000A9FED390A66
:102BD000394880ED000A394890ED000AB1EE400A0C
:102BE0003748D0ED000A30EE200A3648D0ED000A12
:102BF0002C4890ED001A00EE810A2F48D0ED000A13
:102C000020EE200A304880ED000A2C4890ED000AA2
:102C1000B1EE400A2A48D0ED000A30EE600A294899
:102C2000D0ED000A204890ED001A00EE810A2248FB
:102C3000D0ED000A20EE200A234880ED010A1F484B
:102C400090ED000A1E48D0ED000A30EE200A1D4823
:102C5000D0ED000A154890ED001A00EE810A1648E2
:102C6000D0ED000A20EE200A174880ED020A134832
:102C700090ED000A1248D0ED000A30EE600A1148CB
:102C8000D0ED000A0A4890ED001A00EE810A0A48C9
:102C9000D0ED000A20EE200A0B4880ED030A7047B1
:102CA0003F84F8402C02002028020020300200203F
:102CB00034020020D0A21840380200207401002005
:102CC000780100207C0100204810022070B52DED15
:102CD000028B3648B0F906000A2805DC3348B0F903
:102CE000060010F10A0F03DA3048B0F9065000E090
:102CF00000252E48B0F904000A2805DC2B48B0F95D
:102D0000040010F10A0F03DA2848B0F9044000E08B
:102D1000002400EE104AB8EEC00ADFED250A20EECE
:102D2000208A00EE105AB8EEC00ADFED220A60EEEB
:102D3000208AB0EE480A204807F0B0FAB0EE680AE0
:102D40001E4807F0ABFA9FED1E0AB4EEC08AF1EE02
:102D500010FA0CD29FED1B0AB4EEC08AF1EE10FA05
:102D600005DD9FED190A10EE100A134948609FED2A
:102D7000140AF4EEC08AF1EE10FA0CD29FED110A9B
:102D8000F4EEC08AF1EE10FA05DD9FED0F0A10EEA9
:102D9000100A0A494860084840680C49086007481A
:102DA00040680B490860BDEC028B70BD7C150220A9
:102DB0006F1283BB6F12833B081002201810022091
:102DC0000BD7233D0BD723BD00000000740100206A
:102DD0007801002010B52DED108BF1480078022805
:102DE00071D19FEDF00AB0EE409A9FEDEE0AF0EE41
:102DF000409A9FEDEC0AB0EE40AA06F0B5FAEA4818
:102E0000D0ED000AB0EE600AFDF702FBB0EE409A8A
:102E1000E548D0ED000AB0EE600AFDF7BDFAF0EE2D
:102E2000409AE14890ED030AB0EE40AADF4890EDE9
:102E3000000A29EE800ADE48D0ED000A09EE200AD9
:102E4000DA4880ED000AB1EE490AD0ED000A20EE22
:102E5000200AD748D0ED000A09EEA00A80ED000A4A
:102E60009FEDD41ADFEDD40AD44890ED000A07F0A4
:102E7000F7FEF0EE40AAF0EE6A0AB0EE4A0AD04839
:102E800002F0DAFBCF4880ED000ACF4890ED001A3F
:102E9000CE48D0ED000AC54890ED000A07F052FA7E
:102EA000C24880ED000ACA4890ED001AC948D0ED2A
:102EB000000ABF4890ED000A07F044FABC4880EDD4
:102EC000000A6AE1FFE7B648007801282BD1FDF738
:102ED0006DFFC148D0ED000A9FEDB20AB84802F07C
:102EE000ABFBB1EE400AB74880ED000AB64890ED62
:102EF000001AB648D0ED000AAC4890ED000A07F081
:102F000021FAAA4880ED000AB14890ED001AB148B4
:102F1000D0ED000AA64890ED000A07F013FAA44885
:102F200080ED000A39E19E480078D0BBFDF73EFFF6
:102F3000AA48B0F9000000EE100AB8EEC00ADFEDB2
:102F4000A80A20EE200A9F4880ED000AA54890EDCF
:102F5000001AA548D0ED000A9A4890ED000A07F043
:102F6000F1F9984880ED000A974890ED001A9748CB
:102F7000D0ED000A8D4890ED000A07F0E3F98B4888
:102F800080ED000A924890ED001A9248D0ED000AB8
:102F9000874890ED000A07F0D5F9854880ED000AD2
:102FA000FBE0FFE77E48007803288AD17F4800686D
:102FB0000CF0BAFE41EC1A0BB0EE4A0AF0EE6A0AC7
:102FC00005F0DEFBB0EE409AF0EE609A9FED870BC5
:102FD00053EC102B51EC190B0CF06CF81ED274480A
:102FE00000680CF0A1FE41EC1A0BB0EE4A0AF0EEBC
:102FF0006A0A05F0C5FBB0EE409AF0EE609A9FEDCC
:103000007B0B53EC102B51EC190B0CF053F805D241
:10301000B7EE080A6B4880ED000ABEE0B7EE000A82
:10302000684880ED000AFDF7C1FE614800680CF0B9
:103030007BFE41EC1C0B6F4800680CF075FE41EC08
:103040001F0BB0EE4F0AF0EE6F0A05F0A5FBB0EED5
:1030500040EAF0EE60EA51EC1E0B0BF031FB41EC64
:103060001D0B53EC1C2B0CF061F841EC1A0B4F4874
:1030700000680CF059FE41EC1C0B5E4800680CF037
:1030800053FE41EC1E0BB0EE4E0AF0EE6E0A05F058
:1030900013FBB0EE40DAF0EE60DA53EC1C2B51EC8F
:1030A0001D0B0CF043F841EC1B0B53EC1A2B0BF0EF
:1030B00075FC41EC190B0BF00FFB08EE100A3C48B5
:1030C00000680CF031FE41EC1C0B4A4800680CF023
:1030D0002BFE41EC1E0BB0EE4E0AF0EE6E0A05F030
:1030E000EBFAB0EE40DAF0EE60DA53EC1C2B51EC68
:1030F0001D0B0CF01BF841EC1A0B2C4800680CF06F
:1031000013FE41EC1C0B3B4800680CF00DFE41EC3B
:103110001E0BB0EE4E0AF0EE6E0A05F03DFBB0EE6F
:1031200040DAF0EE60DA53EC1C2B51EC1D0B0BF087
:10313000FDFF41EC1B0B53EC1A2B0BF02FFC41EC69
:10314000190B0BF0C9FA08EE900A1F4890ED001A0F
:103150001E48D0ED000AB0EE480A07F0F3F8134815
:1031600080ED000A1A4890ED001A1A48D0ED000AC6
:10317000B0EE680A07F0E6F80D4880ED000A19483D
:1031800090ED001A1848D0ED000A0E4890ED000AA4
:1031900007F0D8F80B4880ED000ABDEC108B10BD8D
:1031A0006401002000000000B4140220740100201B
:1031B00078010020DB0F4940DB0F49C0800100206F
:1031C000C00F02207C010020880100208C0100201B
:1031D0009001002094010020840100207C15022031
:1031E0006F12833A980100209C010020FCA9F1D2C3
:1031F0004D62503FA001002010B51B48C07A032843
:1032000009D1012019490870032007F08FF8022026
:1032100007F080F826E01448C07A01280ED100207B
:10322000124908709FED120A124880ED000A022030
:1032300007F07CF8032007F06DF813E00A48C07A25
:1032400002280FD103F01AFA0320084908709FEDF5
:10325000080A084880ED000A022007F067F80320FA
:1032600007F058F810BD00007C1502206401002012
:1032700000000000800100200246002002EA010355
:103280000BB1012000E00020704700000246094B0E
:103290009A4201D2084801E00648103801F0005374
:1032A0001BB1064B0B40C36002E0044B0B40836034
:1032B0007047000010640240006002407D0F7D0FE7
:1032C00021B1026842F00102026003E0026822F0CC
:1032D0000102026070470000016821F001010160F5
:1032E0000021016041608160C16001612121416173
:1032F0004A49884204D13D21484A103A91608CE005
:1033000046491831884205D14FF47461434A103A56
:10331000916082E041493031884205D14FF4741107
:103320003E4A103A916078E03C494831884205D1E4
:103330004FF07461394A103A91606EE0374960315C
:10334000884204D13649354A103AD16065E03349A4
:103350007831884204D13349304A103AD1605CE078
:103360002E499031884204D12F492C4A103AD1601D
:1033700053E02A49A831884205D14FF03D51274AF0
:10338000103AD16049E02949884204D13D21274AB9
:10339000083A116041E025491831884205D14FF4BF
:1033A0007461224A083A116037E02049303188427E
:1033B00005D14FF474111D4A083A11602DE01B49E4
:1033C0004831884205D14FF07461184A083A1160BB
:1033D00023E016496031884204D11149134A121F73
:1033E00011601AE011497831884204D10D490F4A21
:1033F000121F116011E00D499031884204D10A4931
:103400000A4A121F116008E00849A831884204D115
:103410004FF03D51054A121F116070471060024085
:103420003D000020400F002000003D2010640240BD
:1034300021B1026842F48022026003E0026822F4B3
:1034400080220260704722B1036843F400230360C6
:1034500003E0036823F40023036001617047014621
:10346000486880B27047014600200A6802F40022D2
:103470000AB1012000E000207047000010B50022D2
:103480000268134B1A40CC680B6823434C692343F2
:103490008C692343CC6923430C6A23434C6A23433E
:1034A0008C6A23434C6B23438C6B23431A43026087
:1034B000426922F00702D1E90B3423431A434261E7
:1034C0000B6943604B6883608B68C36010BD00006C
:1034D0003F801CF041607047704700000F48807AC1
:1034E00002280FD10E480078012803D102200C4990
:1034F00008700AE00A480078022806D1002008492E
:10350000087002E00120064908700548007802288A
:1035100001D1012070470020FCE700007C1502204B
:10352000F003002010B51D48808A00F4806010B9B7
:1035300001201B4908801948808A00F4806098B1F6
:103540001748008801280FD1002015490880154828
:103550000088401C13490880088800EBD07149108E
:10356000A0EB41010F4A11800E48008890B10E4A2D
:1035700092ED010ABDEEC00A10EE102A11B20A4AFD
:1035800092ED010ABDEEC00A10EE102A10B200F052
:103590000DF801E003F072F810BD00007C15022068
:1035A0003204002030040020CC03002000F57A72A1
:1035B000034B1A6001F57A721B1D1A6070470000F8
:1035C0003408004010B50446FFF788FF10B3012C03
:1035D00006D1234890ED010A224880ED000A22E03E
:1035E000052C06D11E4890ED050A1E4880ED000A04
:1035F00019E0032C06D11A4890ED030A194880ED12
:10360000000A10E0042C06D1154890ED030A154875
:1036100080ED000A07E0022C05D1114890ED020A66
:10362000104880ED000A2CB90D4890ED000A0D48B5
:1036300080ED000A00F01AF80B4890ED000ABDEE8C
:10364000C00A10EE100A01B2074890ED000ABDEE64
:10365000C00A10EE100A00B2FFF7A8FF10BD00006C
:10366000CC030020F4030020FC030020224890ED4E
:10367000000A2248D0ED000AB4EEE00AF1EE10FA9A
:1036800018D21D4890ED000AF0EE000A30EE200A34
:1036900080ED000A90ED000A1848D0ED000AB4EE63
:1036A000E00AF1EE10FA19DD90ED000A124880ED03
:1036B000000A13E0104890ED000A1048D0ED000A0F
:1036C000B4EEE00AF1EE10FA08DD0B4890ED000AC6
:1036D000F0EE000A30EE600A80ED000A064890ED38
:1036E000000AB5EEC00AF1EE10FA03D29FED040A0B
:1036F00080ED000A70470000FC030020F403002066
:103700000000000010B51E4804F0EAFA1D4804F05D
:1037100015FB1D4804F040FB1C4890ED040A1848B6
:10372000D0ED000A30EE200A194880ED000A174853
:1037300090ED010A1348D0ED000A30EE200A15483A
:1037400080ED000A04F0C6FA0AF072FD1249086022
:103750000E4890ED010A0B48D0ED000A30EE600AE9
:103760000E4880ED010A094890ED040A0448D0EDA6
:10377000000A30EE600A094880ED030A10BD00001F
:10378000AC020020B4020020BC020020B4140220CD
:103790007003002074030020C00200209C1402204B
:1037A00000207047002070471CB500200090019059
:1037B0002148007848B9214890ED000A8DED000AB3
:1037C00090ED030A8DED010A22E01B4800780128E4
:1037D0000DD11A4890ED010AF7EE000A20EE200AFA
:1037E0008DED000A90ED030A8DED010A10E01248FC
:1037F000007803280CD1114890ED020AF7EE000A78
:1038000020EE200A8DED000A90ED030A8DED010AED
:103810009DED010ABDEEC00A10EE102A11B29DED19
:10382000000ABDEEC00A10EE102A10B200231A469C
:10383000FDF71EFE1CBD0000580200203C150220B2
:10384000DFED150AB0EE600A1448B0F9000000EE92
:10385000900AF8EEE00A9FED121AF4EEC10AF1EEBA
:1038600010FA12D20D48B0F9000000EE900AF8EEFE
:10387000E00A9FED0C1AF4EEC10AF1EE10FA04DD35
:10388000DFED050AB0EE600A04E00748D0ED000A5B
:10389000B0EE600A704700000000000070020020D7
:1038A00000A88B4500888845B4140220074800789A
:1038B000022807D005480078052803D0034800787F
:1038C000042801D1012070470020FCE759020020A4
:1038D00003480078042801D1012070470020FCE74C
:1038E0005902002010B50AF0A3FC65490968401A86
:1038F000642802D90020634908700AF099FC6049E5
:103900000860002060490870B1EE002ADFED5F1A00
:103910009FED5F1ADFED5F0A9FED5F0A5F4800F0E1
:10392000C5FAB0EE002ADFED591A9FED591ADFED06
:10393000590A9FED590A5A4800F0B8FADFED590AC2
:103940009FED550A584A0021584801F06DFFDFED00
:10395000550A9FED510A544A0021554801F064FF71
:10396000B0EE082AF7EE001A9FED521ADFED490A71
:103970009FED490A504800F099FA9FED502AF0EE69
:10398000081A9FED4C1ADFED430A9FED430A4C489D
:1039900000F08CFADFED4B0A9FED3F0A4A4A002106
:1039A0004A4801F041FFDFED470A9FED3B0A464AD6
:1039B0000021474801F038FF394800F085FF3748BB
:1039C00000F082FF394801F05FFF394801F05CFFE9
:1039D0003B4800F079FF384800F076FF3B4801F0A3
:1039E00053FF3B4801F050FFF0EE080AB0EE080A22
:1039F000384A0021384801F017FF384890ED010A95
:103A0000374880ED010A354890ED050A344880EDCD
:103A1000040A324890ED010A314880ED020A194843
:103A2000007870B90120174908702C4890ED040AFD
:103A30002B4880ED030A294890ED000A284880EDC4
:103A4000000A274890ED030AF0EE400A254890ED61
:103A5000001A9FED250A01F03DFF214880ED030A81
:103A600090ED000AF0EE400A204890ED001A9FED1C
:103A7000130A01F02FFF1A4880ED000A10BD000064
:103A8000640300206103002058020020CDCCCC3D0F
:103A900000803B450000C84200401C46A4120220A2
:103AA000741202200000FA4350040108341302206B
:103AB000C413022000004844041302200000000048
:103AC000D412022000007A44440401087C1302202E
:103AD0000C1402205C04010854140220B4140220C7
:103AE0009C1402207C020020368D27C0800200201A
:103AF00010B500200A49087001F054FC30B901F0FB
:103B000045FC18B900200749087008E09FED060A37
:103B1000064880ED000A9FED060A80ED020A10BDFE
:103B20005802002059020020000000000016022068
:103B3000368D27C010B5444A4449454807F024F95A
:103B4000444A4549454801F00FFA454890ED010ABD
:103B50003D48D0ED000A30EEC00A414880ED000A31
:103B6000404890ED010A3948D0ED000A30EEC00A15
:103B70003C4880ED000A3C4890ED010A3448D0ED05
:103B8000000A30EEC00A384880ED000A354890ED52
:103B9000000ADFED360A20EE200ADFED350A80EE5E
:103BA000201A344880ED051A2D4890ED000ADFED0B
:103BB0002F0A20EE200ADFED2E0A80EE201A2D4873
:103BC00080ED011A2548B0F90000693000EE100AB6
:103BD000B8EEC00ADFED250A20EE200ADFED240A48
:103BE00080EE201A244880ED031A1A48B0F900002C
:103BF0000D3800EE100AB8EEC00ADFED1C0A20EE08
:103C0000200ADFED1B0A80EE201A1B4880ED001A07
:103C10001248B0F9000069300A2190FBF1F000EE83
:103C2000100AB8EEC00A144880ED040A0948B0F939
:103C300000000D3890FBF1F000EE100AB8EEC00A5B
:103C40000D4880ED010A10BD600200205C020020DA
:103C5000640200206A0200206C020020680200203A
:103C6000480300205003002058030020DB0F494088
:103C700000003443B4140220F414022010B50AF0FA
:103C8000D7FA4E490860FDF7FDFF10B901F07EFB41
:103C900018B100204A49087002E001204849087024
:103CA0004848007D00F0200078BB4648808A00F438
:103CB000804050B34148006843490968884225D98B
:103CC0000120424908703D48006800F5FA703E49FD
:103CD00008603C48007D00F0040028B19FED3C0ADC
:103CE0003C4880ED000A68E03648007D00F008009E
:103CF00028B19FED390A374880ED000A5DE09FED5D
:103D0000360A344880ED000A57E0FFE72D48007D71
:103D100000F02000C0BB2B48007D00F0400028B11F
:103D2000264800682D49096888420AD82548007D40
:103D300000F0800040B321480068294909688842A2
:103D400023D90720214908701E48007D00F040005B
:103D500050B11A480068FA30204908609FED210AE6
:103D6000214880ED000A28E01648007D00F0800020
:103D700000B312480068FA30194908609FED1B0A29
:103D8000194880ED000A18E0FFE701F00BFB10B9BD
:103D900001F0FCFA18B103200C4908700DE0094845
:103DA000C07C012807D10748807A032803D0082067
:103DB0000649087001E000F045FB10BDE804002052
:103DC000580200207C150220EC040020590200203B
:103DD000DB0F4940E0040020DB0F49C0F004002065
:103DE000F4040020DB0FC93FE4040020DB0FC9BF4F
:103DF00010B52DED048B0446B0EE408AF0EE608ADB
:103E0000B0EE419A24B99FED260ABDEC048B10BD9B
:103E100084ED048AC4ED038A78EEC89A9FED211AD6
:103E2000DFED210AB0EE690A06F01AFF84ED050AFB
:103E300094ED000AD4ED050A20EE200A84ED080A6C
:103E400094ED090AD4ED010A94ED051A00EE810AF9
:103E500084ED090A94ED020A20EE090A84ED0A0AAB
:103E6000D4ED070AB0EE600A04F1240005F063F90E
:103E700094ED080AD4ED090A30EE200AD4ED0A0ABE
:103E800030EE200A84ED0B0AD4ED060AB0EE600A8B
:103E900004F12C0005F04FF994ED0B0AB5E7000092
:103EA00000000000DB0F4940DB0F49C000B970473C
:103EB00080ED001AC0ED011A80ED022ADFED062A1E
:103EC000C0ED052ADFED042AC0ED042AC0ED070A83
:103ED00080ED060A00BFEAE70000000010B5924836
:103EE0000078002864D1914890ED000ADFED900A37
:103EF00080EE201A80ED001A90ED030ADFED8C0AA7
:103F000080EE201A80ED031AD0ED001AB0EE611A8F
:103F10008848D0ED001AF0EE610A8748D0ED001A0B
:103F2000B0EE610A8548FFF763FF854880ED000A1F
:103F30007E48D0ED031AB0EE611A7E48D0ED031A28
:103F4000F0EE610A7C48D0ED041AB0EE610A7D48BB
:103F5000FFF74EFF7A4880ED030A90ED001AF0EE6D
:103F6000410A724890ED001AB0EE410A764801F01D
:103F700063FB764880ED000A714890ED031AF0EE7D
:103F8000410A6A4890ED031AB0EE410A704801F008
:103F900053FB6E4880ED030A90ED000A6D4880EDFA
:103FA000000A6A4890ED030A6A4880ED030ABAE005
:103FB0005D48007801285ED15C48D0ED011AB0EE72
:103FC000611A5C48D0ED011AF0EE610A5A48D0ED52
:103FD000011AB0EE610A6048FFF70AFF584880ED09
:103FE000010A5D4890ED0B0ABDEEC00A10EE100A02
:103FF00000B25A4908804D48D0ED031AB0EE611A5C
:104000004C48D0ED031AF0EE610A4B48D0ED041A8B
:10401000B0EE610A4B48FFF7EBFE494880ED030A1A
:1040200090ED011AF0EE410A404890ED011AB0EE11
:10403000410A4B4801F000FB444880ED010A40482A
:1040400090ED031AF0EE410A384890ED031AB0EEF5
:10405000410A3F4801F0F0FA3C4880ED030A90ED38
:10406000010A3C4880ED010A384890ED030A3948BE
:1040700080ED030A57E02C480078032853D12B48E1
:10408000D0ED011AB0EE611A2A48D0ED021AF0EE16
:10409000610A2948D0ED011AB0EE610A2E48FFF7F7
:1040A000A7FE274880ED020A2048D0ED031AB0EEA3
:1040B000611A2048D0ED031AF0EE610A1E48D0EDD7
:1040C000041AB0EE610A1F48FFF792FE1C4880ED0B
:1040D000030A90ED021AF0EE410A144890ED011A1D
:1040E000B0EE410A1E4801F0A7FA184880ED020A16
:1040F000134890ED031AF0EE410A0C4890ED031AB4
:10410000B0EE410A124801F097FA104880ED030A18
:1041100090ED020A0F4880ED020A0C4890ED030A68
:104120000C4880ED030A10BD58020020F414022050
:104130000000C8429C140220B41402207412022011
:104140000C150220D4120220C413022024150220D0
:104150000C1402203C150220A41202207A02002036
:104160003413022010B52DED088BA348B0F90000E0
:104170000A2805DCA048B0F9000010F10A0F04DAA3
:104180009D4800889D49088002E000209B490880E6
:104190009948B0F902000A2805DC9748B0F90200F6
:1041A00010F10A0F04DA944840889549088002E02B
:1041B0000020934908809148B0F9000000EE100AF1
:1041C000B8EEC00ADFED8F0A20EE200A8E4880ED9F
:1041D000000A8B48B0F90000404200EE100AB8EE29
:1041E000C00ADFED880A20EE200A884880ED000A28
:1041F00087480078002864D103F064FA8548D0ED40
:10420000000A90ED000A844801F016FA834880ED18
:10421000000A834890ED010A804880ED010A90ED84
:10422000000ADFED800AB4EEE00AF1EE10FA04DDD8
:104230009FED7C0A80ED000A0DE0784890ED000AC1
:10424000DFED790AB4EEE00AF1EE10FA03D29FED49
:10425000760A80ED000A714890ED030A6B48D0EDB4
:10426000000A30EE200A6D4880ED030A6C4890ED9C
:10427000050A6A4880ED040A90ED030ADFED6B0A37
:10428000B4EEE00AF1EE10FA04DD9FED680A80ED6D
:10429000030AADE0614890ED030A10EE101A0846DB
:1042A0000BF042FD41EC180B9FED610B53EC102B12
:1042B0000AF000FF04D29FED600A584880ED030A1F
:1042C00096E053480078012864D103F0FBF9534885
:1042D00090ED010A4C48D0ED000A30EE200A4F481C
:1042E00080ED010A494800680BF01EFD41EC1B0BF4
:1042F0009FED520B53EC102B0AF018FF41EC190BF9
:10430000464890ED030A10EE101A08460BF00CFD1B
:1043100041EC1A0B53EC192B0AF040FB41EC180B43
:104320000AF0DAF93D49C860084690ED030A3748BB
:10433000D0ED000A30EE200A084680ED030A384826
:1043400090ED050A084680ED040A90ED030ADFEDC2
:10435000370AB4EEE00AF1EE10FA04DD9FED330AFD
:1043600080ED030A44E02D4890ED030A10EE101A88
:1043700008460BF0D9FC41EC180B9FED2D0B53ECCC
:10438000102B0AF097FE33D29FED2B0A234880EDC5
:10439000030A2DE01E480078032829D103F092F982
:1043A00058B11F4890ED010A1C4880ED020A1C48D4
:1043B00090ED040A194880ED030A184890ED020AAE
:1043C0001148D0ED000A30EE200A144880ED020AB0
:1043D00090ED030A0D48D0ED000A30EE200A0F4898
:1043E00080ED030A0E4890ED010A0C4880ED010AA9
:1043F000BDEC088B10BD00007C1502208C02002053
:104400008E0200209C53C9B684020020880200203E
:104410005802002084010020541402209C14022021
:10442000B4140220920A063F920A06BFDB0FC93E6F
:1044300000000040C7280EC03A4671C000000000CE
:104440000000F83F10B54948007838BB484890ED67
:10445000030A4848B0F90E0000EE900AF8EEE00AB0
:104460009FED451A00EE810A414880ED030A90ED68
:10447000000A4048B0F90C0000EE900AF8EEE00A9D
:104480009FED3E1A00EE810A394880ED000A3C4853
:1044900090ED010A364880ED010A66E03348007865
:1044A000012862D13348B0F90C0000EE100AF8EE92
:1044B000C00A344890ED000A9FED301A00EE810AE0
:1044C00080ED000A2B48B0F90E0000EE100AF8EE5D
:1044D000C00A2D4890ED000A9FED271A00EE810AD0
:1044E00080ED000A2348808970B928480068401C84
:1044F0002649086008460068192808D99FED240A53
:10450000204880ED000A02E0002020490860194898
:10451000C08970B91F480068401C1E4908600846E1
:104520000068192808D99FED1A0A174880ED000A7B
:1045300002E00020174908600D48D0ED010AB0EEF6
:10454000600ADFED150A0F4802F04EF8084880EDCA
:10455000010AD0ED030AB0EE600ADFED0F0A0A4847
:1045600002F042F8024880ED030A10BD5802002014
:104570009C1402207C15022017B751B917B7D1B887
:10458000B414022094020020980200206803002046
:10459000000000006C030020CDCC4C3D70B50446FB
:1045A0000D46012C0AD1144805800146098888B2BD
:1045B00006F094FB114880ED040A1CE0DCB91048B9
:1045C00005800146098888B206F088FB0B4880ED1B
:1045D000000A0B48B0F9000000EE100AB8EEC00A5D
:1045E000084880ED000A0649098888B206F076FB83
:1045F000024880ED030A70BD6E020020B414022050
:10460000700200205415022001280BD1114A11809C
:10461000B2F9002000EE102AB8EEC00A0E4A82ED70
:10462000020A16E0A8B90D4A11800D4AB2F900201D
:1046300000EE102AB8EEC00A0A4A82ED000A074AC4
:10464000B2F9002000EE102AB8EEC00A024A82ED4C
:10465000000A704776020020E4140220780200204D
:10466000700200205415022001280BD10C4A118041
:10467000B2F9002000EE102AB8EEC00A094A82ED15
:10468000020A0BE050B9084A1180B2F9002000EE8E
:10469000102AB8EEC00A034A82ED000A70470000F3
:1046A00072020020D41402207402002008B500BF5A
:1046B00009F0BEFD009002F03FFB10B9FFF712F9C0
:1046C0000FE01548C07A012804D101F0A3FA00F0E8
:1046D00083FB06E001F09EFAFFF744FD00200F493E
:1046E0000870FFF7FBFBFFF75FF80D48D0F80B00F1
:1046F00000EE100ADFED0B0AB4EEE00AF1EE10FA5C
:1047000002DB06F0A3FA01E006F096FA0221684601
:1047100008F060FFCCE700007C1502205902002061
:10472000E008022000C07944F0B50A4600210023C9
:10473000002400BF3DE0012505FA01F3156805EAF4
:1047400003049C4234D105684F000326BE40B543A4
:10475000056015794E00B54006683543056015794A
:10476000012D02D01579022D16D185684F00032640
:10477000BE40B543856055794E00B54086683543E7
:104780008560456801268E40B54345604568967949
:104790008E40B6B235434560C5684F000326BE4023
:1047A000B543C560D5794E00B540C6683543C56090
:1047B000491C1029BFD3F0BDF0B5002300244D07DC
:1047C000ED0E02FA05F3CE1000F1200555F8265043
:1047D0004E07F70E0F26BE40B543CF1000F120065E
:1047E00046F82750CE1000F1200555F8265045EA2E
:1047F0000304CE1000F1200545F82640F0BD4183AA
:10480000704701837047000030B5034613B94FF677
:10481000FF7030BD09E013F8014B82EA0400C0B21A
:10482000054D35F8100080EA2222081EA1F1010191
:10483000F1D11046EDE700001602010830B503463D
:1048400005E013F8010B80EA02040448025D081E2B
:10485000A1F10105A9B2F4D1104630BD150101083E
:10486000164890ED000A1648D0ED000A30EE600AB6
:10487000144880ED000A114890ED010A1048D0ED6F
:10488000010A30EE600A0F4880ED010A0B4890EDF6
:10489000030A0B48D0ED040A30EE600A094880EDA7
:1048A000020A064890ED040A0548D0ED050A30EEEC
:1048B000600A044880ED030A704700009C1402203F
:1048C000B41402206C15022000B970479FED090A4C
:1048D00080ED040A80ED030A80ED050A9FED050ACC
:1048E00080ED0A0A80ED090A80ED080A80ED0B0AC6
:1048F00000BFEAE70000000000BFFEE710B500209F
:104900000F4908600F48006820F003000D49086057
:104910000846006840F00100086000200A49C1F81C
:104920008002022004F09CFE01200549086002205C
:1049300004F096FE00200449C1F8840210BD000076
:104940008482424200140240008042421CB5012190
:10495000202000F0F5FF0320009001208DF80400D6
:1049600000208DF8060003208DF8050001208DF849
:10497000070069460448FFF7D7FE01200349086095
:104980000349C1F880021CBD0014024084824242E7
:104990000080424210B500200F4908600F480068AF
:1049A00020F003000D4908600846006840F001004F
:1049B000086001200A49C1F88002022004F050FE7C
:1049C000012005490860022004F04AFE0020044945
:1049D000C1F8840210BD00008482424200140240EB
:1049E0000080424270B5054600241648006820F059
:1049F000030014490860084600680860002616E0B5
:104A0000002011490860022004F02AFE01200F490D
:104A1000C1F884026006040E0B488438006808B1AF
:104A2000601CC4B2012004F01BFE701CC6B2082E2C
:104A3000E6DB15B9FFF7AEFF01E0FFF75FFF2046A9
:104A400070BD000000140240848242420080424255
:104A500070B504461548006820F00300134908604B
:104A60000846006840F00100086000201049086016
:104A7000002517E0E0090E49091F08606006040ED2
:104A8000022004F0EDFD01200A49C1F88402022051
:104A900004F0E6FD002006490860022004F0E0FD75
:104AA000681CC5B2082DE5DB70BD00000014024093
:104AB000848242420080424210B50F48006820F0D4
:104AC00003000D4908600846006840F001000860D6
:104AD00001200A4908600A49C1F88402042004F050
:104AE000BFFD002005490860042004F0B9FD002046
:104AF0000349C1F8840210BD001402408082424282
:104B00000080424210B50F48006820F003000D49B4
:104B100008600846006840F00100086000200A496B
:104B200008600A49C1F88002042004F099FD0120C0
:104B3000054908600549C1F88002042004F090FD91
:104B400010BD0000001402408482424200804242B4
:104B500010B500241348006820F0030011490860D4
:104B600008460068086001200F49086004F078FDDD
:104B700001200E49C1F8840204F072FD07E0601CB8
:104B8000C4B2FA2C03DDFFF7BDFF012010BD0648BB
:104B9000803800680028F2D10349091D086000BF71
:104BA000F4E700000014024080824242008042424A
:104BB00010B51048D0F802000F4908600F4890ED7A
:104BC000000A0846D0ED000AB4EE600AF1EE10FAD1
:104BD0000AD00B480088401C09490880064890ED1F
:104BE000000A064880ED000A09F022FB054908602A
:104BF00010BD0000BB000020D8000020DC00002019
:104C0000CA000020D0000020002001490880704721
:104C1000CA0000200148C088704700007C080220BC
:104C20000148008870470000CA0000202DE9F041CB
:104C300004460025002714B90120BDE8F08156483C
:104C400021680160217901712078A52872D10521A0
:104C5000204603F021F801286DD1607800F10906A3
:104C60003146204602F0F8FF01287AD1012560790B
:104C7000A17940EA012740F20121781A8F423CD005
:104C800012DC40F20111A7EB01008F4224D006DCB8
:104C9000012F11D0022F16D0032F61D117E0012868
:104CA0001FD002285CD123E0072859D2DFE800F0AA
:104CB000582B31373B444E003848B4F80710018078
:104CC000617A81704CE03648E179017048E03548FE
:104CD000B4F80710018043E03348D4F807100160AE
:104CE0003EE03248B4F807100180617A817037E005
:104CF0002F48B4F80710018032E00F22E11D2D4843
:104D0000FBF7F6FC2CE00E22E11D2B48FBF7F0FC34
:104D100026E01022E11D2948FBF7EAFC20E02848A4
:104D2000E17901701CE02748B4F807100180617A2E
:104D3000817015E025E014E02348E17901700078E6
:104D4000000910B901202149087009E02048D4F871
:104D500007100160B4F80B108180FFF729FF00BF36
:104D600000BF0D48B0F80110E01D08448078A52868
:104D700007D10949B1F80120E11D1144881CFFF752
:104D800055FF012D03D101201249087002E00020D7
:104D900010490870284650E7C1000020A8000020F4
:104DA000AB000020AC000020AE000020B2000020CC
:104DB000B50000207C0802208B0802209908022000
:104DC000B7000020B8000020BA000020CC0000206E
:104DD000BB000020C600002010B53A480078092822
:104DE0006ED2DFE800F005086D256D6D6D34510061
:104DF000FEF744FF64E0012033490870334890ED2A
:104E0000000AB5EEC00AF1EE10FA03D100202D49D8
:104E100008700CE02E48D0ED010AB0EE600ADFED1C
:104E20002D0A2A4801F0E0FB294880ED010A47E0FD
:104E3000FEF75EFE284890ED000A254880ED000A46
:104E4000254890ED020A224880ED030A38E001204F
:104E50001D490870214890ED000AB5EEC00AF1EE38
:104E600010FA03D10020174908700CE01848D0ED63
:104E7000010AB0EE600ADFED170A184801F0B4FB32
:104E8000134880ED010A1BE001200F490870144807
:104E9000C07C012811D000200A490870114908740B
:104EA000114908801149087011490870114908809A
:104EB000114908801149088001E0FEF723FC00BF7A
:104EC00000BF10BD5902002058020020E00400205D
:104ED0009C1402200AD7233D00160220E40400207F
:104EE0007C150220E0080220000300209C02002024
:104EF0009D0200209E020020A0020020A2020020AD
:104F000031E001F019FF012812D101F00FFF28B99B
:104F1000002005F00BFA012005F0FCF901F006FF76
:104F200001281DD105F002FA002005F0F3F917E081
:104F3000002005F0EFF9012005F0ECF9022005F062
:104F4000E9F9032005F0E6F9042005F0E3F905206E
:104F500005F0E0F9062005F0DDF9072005F0DAF9A3
:104F6000012008F009FBCCE72DE9FC4104460D4681
:104F700016466B4606224321682000F077F8074664
:104F8000BFB99DF801009DF8001040EA012000B271
:104F900020809DF803009DF8021040EA012000B235
:104FA00028809DF805009DF8041040EA012000B219
:104FB00030803846BDE8FC8110B5FFF7C7FC802182
:104FC0006B2000F007F9C82004F022FB00216B20C1
:104FD00000F000F9032000F08BF8002000F080F8CA
:104FE000322000F0AAF80021382000F0F3F8002168
:104FF0006A2000F0EFF80021232000F0EBF8802178
:10500000372000F0E7F8752000F013F80446682C0C
:105010000BD101216B2000F0DDF800216C2000F0A5
:10502000D9F8322000F089F801E0012010BD0020FD
:10503000FCE770B50446FFF73FFDD020FFF708FD01
:10504000FFF786FD2046FFF703FDFFF781FDFFF721
:1050500033FDD120FFF7FCFCFFF77AFD0020FFF7BE
:10506000C1FC0546FFF74EFD284670BD2DE9F04115
:1050700006460F4614461D46FFF71EFD002141EA75
:105080004601C8B2FFF7E4FCFFF762FD20B1FFF76D
:1050900039FD0120BDE8F0813846FFF7D9FCFFF764
:1050A00057FDFFF709FD012101EB4601C8B2FFF7EB
:1050B000CFFCFFF74DFD0DE0012C04D10020FFF7E0
:1050C00091FC287003E00120FFF78CFC2870601E23
:1050D000C4B26D1C002CEFD1FFF714FD0020D9E7FE
:1050E00010B50446E006010E1C2000F073F810BD58
:1050F00010B50446E006010E1B2000F06BF810BD51
:1051000070B504460025BC2C01DB012510E0622CA3
:1051100001DB02250CE02A2C01DB032508E0142C1E
:1051200001DB042504E00A2C01DB052500E006254F
:1051300029461A2000F04EF870BD70B50446B4F54B
:105140007A7F01DD4FF47A74042C00DA04244FF4E2
:105150007A7090FBF4F0401EC5B22946192000F089
:1051600039F80546264604EBD671C1F34F00FFF728
:10517000C7FF70BD10B50E4A0E490F4805F004FE7A
:105180000E4A0F490F48FFF7EFFE094890ED000A5D
:105190000D4880ED010A074890ED000A0B4880EDAC
:1051A000010A054890ED000A094880ED010A10BD8A
:1051B000600200205C020020640200206A020020DD
:1051C0006C020020680200204803002050030020E9
:1051D0005803002070B505460C46FFF76DFCD02043
:1051E000FFF736FCFFF7B4FC18B1FFF78BFC01208A
:1051F00070BD2846FFF72CFCFFF7AAFC2046FFF7FE
:1052000027FCFFF7A5FC18B1FFF77CFC0120EFE7B6
:10521000FFF778FC0020EBE72DE9F04105460E464C
:1052200017469846FFF748FC002141EA4501C8B2FD
:10523000FFF70EFCFFF78CFC20B1FFF763FC0120A9
:10524000BDE8F0813046FFF703FCFFF781FC002446
:105250000CE018F80400FFF7FBFBFFF779FC18B12E
:10526000FFF750FC0120EBE7601CC4B2BC42F0DB4E
:10527000FFF748FC0020E3E710B501F05DFD70B9D1
:105280004FF4F060394908803949088001203949D4
:1052900008700020384908703849087026E000F08E
:1052A00037F970B13148B0F90000B0F5E16F04D1C1
:1052B0004FF4F0602D49088003E04FF4E1602B4982
:1052C000088001F033FD012802D100F077F80DE0ED
:1052D00000202B490870012026490870002026492B
:1052E0000870264908700120264908702048B0F946
:1052F00000001E49B1F90010884214DA1C480088E9
:1053000021490988084400B2194908801748B0F9B2
:1053100000200846B0F90010B0F9000004F004F9CC
:10532000134908801CE01248B0F900000F49B1F998
:105330000010884214DD0E48008813490988401A7D
:1053400000B20B4908800846B0F900200748B0F9C0
:1053500000100748B0F9000004F0E6F8044908809E
:105360000348B0F9000000F0C7F810BD3E0100206E
:105370004001002046010020470100204801002094
:105380004501002049010020420100200448B0F9F5
:105390000000B0F5E16F01D1012070470020FCE76B
:1053A000400100200448B0F90000B0F5E16F01D1E0
:1053B000012070470020FCE73E01002010B50024CA
:1053C00045480078012809D10020444908704FF46D
:1053D000F0604349088000203F49087008F028FF2A
:1053E00004463E48007810B1012872D141E03D48A2
:1053F000808A00F4807058B901203B4908703B480E
:105400000068201AB0F5FA7F02D9002038490870E8
:105410003448808A00F4807080B1334800780128D5
:105420000CD1FEF743FA48B93048046000202E49F9
:1054300008702F480078401C2D4908702C480078CF
:10544000022811DB0120254908704FF4E16024494E
:105450000880FFF7E5FB002803DDFFF7D5FB01F02F
:1054600023F92448046003E04FF4F0601C490880ED
:105470002FE01C48808A00F4807010B901201A497E
:1054800008701848007D00F0020008B9194804604F
:1054900018480068201AB0F5487F0ED81148007DE2
:1054A00000F0400048B90F48007D00F0800020B9AE
:1054B0000C48808A00F4804018B100200749087029
:1054C00003E04FF4E16006490880002008490870B5
:1054D00000BF00BF10BD00004901002045010020B1
:1054E0003E0100207C1502204601002050010020D2
:1054F000480100204C010020011E01DB0A4600E0AB
:105500004A4210B201490860704700003C04014063
:105510001348C07A032817D11148807A01280FD187
:1055200010480078012803D102200E4908700EE0CF
:105530000C48007802280AD100200A49087006E0C9
:1055400001200849087002E000200649087005485B
:105550000078022801D1012070470020FCE70000FC
:105560007C1502204401002000BFFEE71CB501218C
:10557000084600F0E5F93020009001208DF8040085
:1055800000208DF8060003208DF8050001208DF81D
:10559000070069460348FFF7C7F820210148FFF7D5
:1055A00030F91CBD000002407047000070B50021BA
:1055B00000230F22C4781CB3174C246804F4E06461
:1055C000C4F5E064C4F30721C1F10404E3B20A4165
:1055D00044789C40E1B28478144021430C07210EAA
:1055E0000E4C05786155047804F01F050124AC4089
:1055F00005786D11AD0005F1E025C5F8004109E021
:10560000047804F01F050124AC40054D067876119E
:1056100045F8264070BD00000CED00E000E400E01D
:1056200080E100E002490143024A11607047000036
:105630000000FA050CED00E0B0EE401A10B99FED45
:10564000790A704790ED100A80ED110A90ED0F0A6B
:1056500080ED100AC0ED060A80ED071A30EEC10A8F
:1056600080ED0F0A0178002975D190ED010AD0ED87
:105670000F1A20EE210A80ED090A90ED0A0AD0EDFA
:10568000021A90ED0F2A01EE820A80ED0A0A90EDCF
:105690000D0A80ED0E0A90ED0C0A80ED0D0A90EDDA
:1056A0000F0AD0ED101A30EE610A80ED0C0A90ED71
:1056B000030AD0ED0C1A20EE210A80ED0B0A90EDC2
:1056C0000A0AD0ED051AB4EEE10AF1EE10FA04DD93
:1056D00090ED050A80ED0A0A10E090ED0A0AD0ED7F
:1056E000051AF1EE611AB4EEE10AF1EE10FA05D2F4
:1056F00090ED050AB1EE400A80ED0A0A90ED090A24
:10570000D0ED0A1A30EE210AD0ED0B1A30EE210A44
:1057100080ED080A90ED080AD0ED041AB4EEE10A13
:10572000F1EE10FA04DD90ED040A80ED080A76E04F
:1057300090ED080AD0ED041AF1EE611AB4EEE10A18
:10574000F1EE10FA6BD290ED040AB1EE400A80ED52
:10575000080A64E0FFE70178012960D190ED0F0AA3
:10576000D0ED101A30EE610AD0ED011A20EE210AB8
:1057700080ED090A90ED020AD0ED0F1A20EE210A01
:1057800080ED0A0A90ED0D0A80ED0E0A90ED0C0AEC
:1057900080ED0D0A90ED0F0AD0ED101AB0EE002A40
:1057A00002EE610AD0ED111A30EE210A80ED0C0AEA
:1057B00090ED030AD0ED0C1A20EE210A80ED0B0AC1
:1057C00090ED090AD0ED0A1A30EE210AD0ED0B1A3D
:1057D00030EE210AD0ED081A30EE210A80ED080AD9
:1057E00090ED080AD0ED041AB4EEE10AF1EE10FAD9
:1057F00004DD90ED040A80ED080A10E090ED080A3F
:10580000D0ED041AF1EE611AB4EEE10AF1EE10FAED
:1058100005D290ED040AB1EE400A80ED080A90ED41
:10582000080A0EE70000000000B102B970470170DD
:1058300092ED001A80ED011A92ED011A80ED021A24
:1058400092ED021A80ED031A80ED040AC0ED050AFC
:105850009FED0C1A80ED0E1A80ED0D1A80ED0C1ADA
:105860009FED081A80ED081A80ED0B1A80ED0A1AD8
:1058700080ED091A80ED111A80ED101A80ED0F1AD3
:1058800000BFD3E70000000000B970479FED100A89
:1058900080ED110A80ED100A80ED0F0A9FED0C0AD1
:1058A00080ED0E0A80ED0D0A80ED0C0A9FED080ACE
:1058B00080ED0B0A80ED0A0A80ED090A80ED080AE6
:1058C0009FED030A80ED060A80ED070A00BFDCE7C2
:1058D00000000000B0EE402A9FED180AF0EE401ADA
:1058E00032EE600AF0EE401AF5EEC01AF1EE10FA50
:1058F0000EDDF4EEC11AF1EE10FA04DD30EE810A8D
:10590000F0EE400A16E030EEA10AF0EE400A11E097
:10591000B1EE410AF4EEC01AF1EE10FA06D2B1EE81
:10592000410A30EE800AF0EE400A03E030EEA10AB0
:10593000F0EE400AB0EE600A704700000000000080
:1059400029B1064A12680243044B1A6004E0034A74
:1059500012688243014B1A607047000030380240E1
:1059600029B1064A12680243044B1A6004E0034A54
:1059700012688243014B1A607047000040380240B1
:1059800029B1064A12680243044B1A6004E0034A34
:1059900012688243014B1A607047000020380240B1
:1059A00029B1064A12680243044B1A6004E0034A14
:1059B00012688243014B1A6070470000443802406D
:1059C00029B1064A12680243044B1A6004E0034AF4
:1059D00012688243014B1A6070470000243802406D
:1059E000F0B5002100220024022500260223324FB8
:1059F0003F6807F00C0121B1042905D0082937D1EF
:105A000005E02E4F076036E02D4F076033E02A4F48
:105A10003F1F3F68C7F38056274F3F1F3F6807F07F
:105A20003F036EB1264FB7FBF3F7DFF88CC0ACF144
:105A3000040CDCF800C0CCF3881C07FB0CF40CE071
:105A40001E4FB7FBF3F7DFF870C0ACF1040CDCF8C5
:105A500000C0CCF3881C07FB0CF4174F3F1F3F68B6
:105A6000C7F301477F1C7D00B4FBF5F7076002E038
:105A7000124F076000BF00BF0F4F3F6807F0F001F3
:105A80000909104F7A5C0768D74047600A4F3F68A2
:105A900007F4E051890A0B4F7A5C4768D74087606A
:105AA000054F3F6807F46041490B064F7A5C476831
:105AB000D740C760F0BD0000083802400024F40061
:105AC000001BB7001400002070B590B004460E46CD
:105AD000154601214A48FFF733FF01211020FFF747
