:020000040800F2
:10000000C81E02204D030008116600089958000818
:10001000D1650008210F00081FAC00080000000097
:100020000000000000000000000000009502000831
:10003000053E000800000000E9020008AD8100084C
:1000400071030008710300087103000871030008C0
:1000500071030008710300087103000871030008B0
:1000600071030008710300087103000871030008A0
:100070007103000871030008710300087103000890
:100080007103000871030008710300087103000880
:100090005D0F000871030008710300087103000878
:1000A0007103000871030008710300087103000860
:1000B00071030008498200087103000871030008F9
:1000C0007103000871030008710300087103000840
:1000D00071030008B1A7000871030008710300084C
:1000E0007103000871030008710300087103000820
:1000F0007103000871030008710300087103000810
:1001000071030008710300087103000871030008FF
:100110007103000871030008598300087103000887
:1001200071030008710300087103000871030008DF
:1001300071030008710300087103000871030008CF
:10014000A111000871030008710300087103000881
:1001500071030008710300087103000895A80008E6
:10016000710300087103000871030008710300089F
:10017000710300087103000871030008000000000B
:100180007103000871030008398A00087103000830
:10019000710300087103000871030008710300086F
:1001A00000000000000000007103000800F002F8E9
:1001B00000F061F80AA090E8000C82448344AAF1A0
:1001C0000107DA4501D100F056F8AFF2090EBAE89E
:1001D0000F0013F0010F18BFFB1A43F0010318477B
:1001E000A04E0100C04E01000A444FF0000C10F870
:1001F000013B13F0070408BF10F8014B1D1108BFA5
:1002000010F8015B641E05D010F8016B641E01F844
:10021000016BF9D113F0080F1EBF10F8014BAD1C94
:100220000C1B09D16D1E58BF01F801CBFAD505E0B2
:1002300014F8016B01F8016B6D1EF9D59142D6D30C
:10024000704700000023002400250026103A28BF34
:1002500078C1FBD8520728BF30C148BF0B60704738
:10026000642900F04181002070471FB512F038FF6B
:100270001FBD10B510BD00F031FC1146FFF7F5FFB2
:100280000DF0AAFD00F04FFC03B4FFF7F2FF03BC32
:100290000BF091FF2A4B19680868B0E8F04F80F323
:1002A0000988BFF36F8F4FF0000080F3118870470B
:1002B0000000000006480068006880F3088862B605
:1002C00061B6BFF34F8FBFF36F8F00DF00BF00BF7A
:1002D00008ED00E0DFF80C00016841F470010160F6
:1002E000704700BF88ED00E0EFF30980BFF36F8F28
:1002F000134B1A681EF0100F08BF20ED108A20E97A
:10030000F04F106008B44FF0500080F31188BFF335
:100310004F8FBFF36F8F10F0FDFB4FF0000080F3A5
:10032000118808BC19680868B0E8F04F1EF0100F7B
:1003300008BFB0EC108A80F30988BFF36F8F704755
:1003400024000020EFF30580704700000C4801688E
:1003500041F4700101600B4880470B480047FEE7FD
:10036000FEE7FEE7FEE7FEE7FEE7FEE7FEE7FEE765
:10037000FEE7000005480649044A064B70470000A6
:1003800088ED00E0BD810008AD010008C81A022018
:10039000C81E0220C81A02209FED1A1AF5EE000AA4
:1003A00040EE010ABDEEE00AF5EEC00A10EE100ABA
:1003B000F1EE10FA38BF401E00EE100A1349F7EEB6
:1003C000001AB8EEC00A30EEC00ADFED0F0A20EEC8
:1003D000200AFCEEC00A10EE900AC0F3080000EEFE
:1003E000900A01EB8000F8EE600A90ED011A70EEC1
:1003F000600A90ED000A71EEE01A21EE800A00EE2C
:10040000810A704783F9223E000000440846010833
:10041000DFED190AB5EEC00A60EE200ABDEEE01A63
:1004200011EE100AF1EE10FA38BF401E00EE100A6D
:100430001349F7EE001AB8EEC00A30EEC00ADFED3D
:100440000F0A60EE200ABCEEE00A10EE100AC0F3BC
:10045000080000EE100A01EB8000B8EE400A90EDB3
:10046000011A70EEC00A90ED000A71EEE01A21EE5A
:10047000800A00EE810A704783F9223E00000044A2
:1004800008460108704710B54C1084EA530404D59F
:100490004042C1F1000138BF491E1B4204D55242FF
:1004A000C3F1000338BF5B1E00F0EEF914F0804F7B
:1004B00004D04042C1F1000138BF491E14F0004F82
:1004C00004D05242C3F1000338BF5B1E10BD0000D0
:1004D0000FB4044910B503AA029800F0C9FA10BC81
:1004E0005DF814FB380100202DE9F0410646002498
:1004F00010687529314616A510D0AFF3008000288A
:1005000002DA404213A507E031688A0701D512A537
:1005100002E0490704D511A5012401E0AFF30080F2
:1005200000210A2206F1240709E0B0FBF2FCB0FB2F
:10053000F2F302FB1C00303078541846491C0028A6
:10054000F3D123462A463046BDE8F04100F01EBAFA
:10055000000000002D0000002B0000002000000023
:100560002DE9F05F894604464FF0000ADFF824B118
:10057000FB44C0F820A02046E168884700287DD0D1
:10058000252806D0D4E901219047206A401C20622A
:10059000F1E700255F462046E168884720280646A7
:1005A00007DB312E05D2B81910F8200C08B105432D
:1005B000F1E7A80701D525F00405C4F81CA0002721
:1005C000C4F818A02A2E09D030460BF0EDFD38B340
:1005D00004EB8708303EC8F8186019E059F8041B8E
:1005E000204604EB87029161E1688847012F0646A7
:1005F00018D1E069002820DA25F020051DE0D8F8A0
:10060000180000EB800006EB40003038C8F81800F6
:100610002046E168884706460BF0C6FD0028EED16B
:10062000012F0AD02E2E08D12046E16888477F1C72
:100630000646022F45F02005C4DBA069002803DA36
:10064000404245F00105A061E80701D025F0100502
:10065000A6B1A6F14100192802D8203645F400655C
:100660004A463146204625604D46FFF7F9FD60B108
:10067000012807D0ED1D25F0070000E007E000F19C
:10068000080978E705F1040975E730467AE7206A3A
:10069000BDE8F09F9848010040EA010310B59B07B0
:1006A0000FD1042A0DD310C808C9121F9C42F8D0DC
:1006B00020BA19BA884201D9012010BD4FF0FF308D
:1006C00010BD1AB1D30703D0521C07E0002010BDA3
:1006D00010F8013B11F8014B1B1B07D110F8013B2F
:1006E00011F8014B1B1B01D1921EF1D1184610BD10
:1006F000032A40F2308010F0030C00F0158011F84E
:10070000013BBCF1020F624498BF11F801CB00F825
:10071000013B38BF11F8013BA2F1040298BF00F879
:1007200001CB38BF00F8013B11F0030300F0258036
:10073000083AC0F0088051F8043B083A51F804CB5D
:10074000A0E80810F5E7121D5CBF51F8043B40F823
:10075000043BAFF30080D20724BF11F8013B11F82E
:1007600001CB48BF11F8012B24BF00F8013B00F872
:1007700001CB48BF00F8012B704710B5203AC0F0FC
:100780000B80B1E81850203AA0E81850B1E8185092
:10079000A0E81850BFF4F5AF5FEA027C24BFB1E8CF
:1007A0001850A0E8185044BF18C918C0BDE8104040
:1007B0005FEA827C24BF51F8043B40F8043B08BF49
:1007C0007047D20728BF31F8023B48BF11F8012B10
:1007D00028BF20F8023B48BF00F8012B704702F009
:1007E000FF0343EA032242EA024200F002B84FF05C
:1007F00000020429C0F0128010F0030C00F01B80EE
:10080000CCF1040CBCF1020F18BF00F8012BA8BFFB
:1008100020F8022BA1EB0C0100F00DB85FEAC17CBF
:1008200024BF00F8012B00F8012B48BF00F8012B72
:1008300070474FF0000200B51346944696462039A3
:1008400022BFA0E80C50A0E80C50B1F12001BFF489
:10085000F7AF090728BFA0E80C5048BF0CC05DF8EF
:1008600004EB890028BF40F8042B08BF704748BF3D
:1008700020F8022B11F0804F18BF00F8012B7047B1
:10088000704770477047704753EA020C00F0698068
:100890002DE9F04B4FF00006002B1FBFB3FA83F594
:1008A00003FA05F424FA05F65E4012BF1643B2FAC5
:1008B00082F502FA05F4C5F120051EBF22FA05FCF7
:1008C00044EA0C04203556EA044C4FEA144418BF9D
:1008D000641C4FF000084FF00009904271EB030CCC
:1008E00039D3002919BFB1FA81F701FA07F6B0FA36
:1008F00080F700FA07F6C7F120071EBF20FA07FCB1
:1009000046EA0C062037B6FBF4FCA7EB0507103FC0
:1009100007F01F0BCBF120060CFA0BFB2CFA06F6A6
:1009200044BFB3460026202FA4BF5E464FF0000B05
:100930005BEA060C08BF4FF0010B19EB0B09ABFB90
:10094000027C48EB0608C01B06FB02CC0BFB03CC69
:1009500071EB0C01C1E70B46024641464846BDE833
:10096000F08B13B54FF000004FF00001AFF30080A3
:10097000BDE81C40704710B500F08CF8006810BD51
:1009800010B5044600F086F8046010BD2DE9F0476C
:100990000D4699469246044600F1240801688806EF
:1009A00004D5E06921F01001216000E00120A84297
:1009B00001DD471B00E00027A1697A1902EB09005D
:1009C000081AA0612078C00602D42046AFF3008048
:1009D000002608E0D4E901211AF806009047206AB1
:1009E000401C761C20624E45F4DB2078C0060AD5F8
:1009F0002046AFF3008006E0D4E901213020904783
:100A0000206A401C2062381EA7F10107F4DC07E0D1
:100A1000D4E9012118F805009047206A401C2062A3
:100A2000281EA5F10105F3DC2046AFF300802078F5
:100A3000000602D50220BDE8F0870120FBE7000098
:100A400001694A1C02610878704700B58FB0CDE992
:100A500001310021059105497944CDE90310114682
:100A60006846FFF77DFD0FB000BD0000E5FFFFFF0A
:100A7000074B70B50D467B44FFF7E7FF0446284659
:100A800000F024F810B14FF0FF3070BD204670BD6B
:100A9000EFC9000000487047681A02201FB584B0F3
:100AA00000200A9C06AB04AA02A90094AFF30080C0
:100AB00018B1DDE9020108B010BD0348204000F084
:100AC0003BF800200146F6E70000207C007B00F0A8
:100AD0008000704700487047681A02207546FFF78B
:100AE000F9FFAE4605006946534620F007008546EB
:100AF00018B020B5FFF73EFCBDE820404FF00006DF
:100B00004FF000074FF000084FF0000B21F00701F5
:100B1000AC46ACE8C009ACE8C009ACE8C009ACE838
:100B2000C0098D46704710B50446AFF300802046DB
:100B3000BDE81040FFF7A8BB10B500F009F8BDE80C
:100B40001040AFF30080002801D00BF034BB704799
:100B500010B5022803D0410103D50DA112E00020F9
:100B600010BD010101D50FA10CE0C10001D511A1FB
:100B700008E0810001D512A104E0400001D513A1D5
:100B800000E0002115A000F039F8012010BD0000A0
:100B9000496E76616C6964204F7065726174696F2B
:100BA0006E000000446976696465204279205A65C8
:100BB000726F00004F766572666C6F770000000000
:100BC000556E646572666C6F77000000496E6578DB
:100BD00061637420526573756C7400005349474615
:100BE00050453A2041726974686D65746963206587
:100BF0007863657074696F6E3A20000070B50546C1
:100C00000C460A2000E06D1C0BF0D9FA35B12878AB
:100C10000028F8D102E0641C0BF0D1FA14B120785E
:100C20000028F8D1BDE870400A200BF0C8BA21B105
:100C3000826842F00102826003E0826822F00102D1
:100C4000826070470021084A1168084A1140D0E9C3
:100C500000231A4383681A43C3681A431143044AA2
:100C6000C2F804137047000004230140E030FCFF89
:100C70000020014030B50246002000235068104C8F
:100C800020400D790C6844EA0524204350609068A8
:100C90000C4C2040D1E903542C438D682C434D79F2
:100CA00044EA450420439060D06A20F470000C7D33
:100CB000641EE4B2234340EA0350D06230BD00001A
:100CC000FFFEFFFCFDF7FFC0F0B504460D46002017
:100CD0000021092D11DDE068A5F10A0606EB4607A3
:100CE000072606FA07F18843A5F10A0606EB460631
:100CF00003FA06F10843E0600CE0206905EB4507C4
:100D0000072606FA07F1884305EB450603FA06F1C4
:100D100008432061072A0FDA606B561E06EB860730
:100D20001F2606FA07F18843561E06EB860605FACB
:100D300006F10843606322E00D2A0FDA206BD61F0C
:100D400006EB86071F2606FA07F18843D61F06EB37
:100D5000860605FA06F10843206310E0E06AA2F176
:100D60000D0606EB86071F2606FA07F18843A2F157
:100D70000D0606EB860605FA06F10843E062F0BDB3
:100D800038B10849096841F40001074AC2F8041360
:100D900006E00449096821F40001034AC2F804137B
:100DA00070470000042301400020014010B52DEDE4
:100DB000048B1B4890ED000AB1EE400A194880ED03
:100DC000000A006812F0D6F841EC190BB0EE490A9F
:100DD000F0EE690A0AF0B8FCB0EE408AF0EE608AE4
:100DE00051EC180B10F030FD0F4908600D480068F9
:100DF00012F0C0F841EC190BB0EE490AF0EE690AA6
:100E00000AF012FDB0EE408AF0EE608A51EC180B49
:100E100010F01AFD05490860BDEC048B10BD000000
:100E200098160220CC010020D0010020D40100201F
:100E300038B54FF4407005F029FC4FF47A700BF090
:100E40000DFC0CF031FF0FF05BF90EF01FF90CF008
:100E500019FB5A2147F230500BF036FA0CF0FCFE29
:100E60005A214EF6602007F089FA07F005FA07F0DC
:100E7000C1FA05F0AFFB002005231A4601210090BE
:100E800000F006F9002005231A460121009000F029
:100E9000B1FA002408E020460EF02CF940F2C520FB
:100EA0000BF03AFC601CC4B2042CF4DB0EF01CFF07
:100EB0004FF4E1300FF00AFA4FF4E1300FF04AF945
:100EC00005F0B2F81FE010F06BFA1149086008460F
:100ED000006810490968884215D30D4800686430DD
:100EE0000C4908600C48B0F90000022805DB00201E
:100EF0000A4908700849088005E007480088401C36
:100F000000B2054908800DF0D7F80028DBD138BDC4
:100F10009C000020A0000020A400002098000020D9
:100F200000BFFEE710B586B004464FF40470019090
:100F300000208DF80C008DF80D0008208DF80E00B3
:100F400020128DF80F008DF8104001A9024800F022
:100F5000CCFD06B010BD00000068004070B586B042
:100F600002214A4800F026FC40B10221474800F027
:100F700049FB01AA0021454800F03FFD40F2052150
:100F8000019888420AD19DF812109DF8110041EA9B
:100F9000002004B22146002003F0F6F840F20621BA
:100FA000019888420AD19DF812109DF8110041EA7B
:100FB000002004B22146012003F0E6F840F20721A8
:100FC0000198884213D19DF810009DF80F1040EA57
:100FD000012005B2284606F053F89DF812109DF83E
:100FE000110041EA002004B2204606F04FF840F21A
:100FF00009210198884220D19DF810009DF80F101A
:1010000040EA012005B22946002004F05FFA9DF86D
:1010100012109DF8110041EA002004B22146002080
:1010200004F08AFA9DF814109DF8130041EA00209C
:1010300006B23146002004F0AFFA40F20A210198CE
:10104000884220D19DF810009DF80F1040EA012041
:1010500005B22946012004F039FA9DF812109DF8D6
:10106000110041EA002004B22146012004F064FA94
:101070009DF814109DF8130041EA002006B2314695
:10108000012004F089FA06B070BD00000064004041
:101090002DE9F0418AB004460D4616461F46DDF89C
:1010A00040800121082005F07FFC0121480605F061
:1010B0008BFC0121480605F097FC00214FF00070E1
:1010C00005F092FC0320089002208DF824000020F7
:1010D0008DF8260003208DF8250001208DF82700CB
:1010E00008A92D4804F0C4FA092200212A4804F076
:1010F00007FB09220121284804F002FB00208DF89B
:101100001A0001208DF81B0000208DF81C008DF8BE
:101110001D008DF81E008DF81F008DF816808DF8CB
:1011200017408DF818608DF81950ADF8147005A9A6
:101130001A4800F0D8FB00208DF80E008DF80F0043
:1011400001208DF810000020ADF80400ADF8060075
:10115000ADF80800ADF80A00ADF80C0001208DF8DC
:10116000110001A800F0A2FA012202210B4800F0B0
:10117000B1FB14208DF8000004208DF80100002040
:101180008DF8020001208DF80300684605F042FA50
:1011900000200AB0BDE8F081000C0240006400406D
:1011A00070B586B002218D4800F004FB00287CD089
:1011B00002218A4800F026FA01AA0021874800F09F
:1011C0001CFC40F201210198884220D19DF81000BA
:1011D0009DF80F1040EA012005B22946002000F0DA
:1011E00089FD9DF812109DF8110041EA002004B21B
:1011F0002146002000F08AFD9DF814109DF8130090
:1012000041EA002006B23146002000F079FD40F2AC
:1012100002210198884220D19DF810009DF80F10FE
:1012200040EA012005B22946012000F063FD9DF847
:1012300012109DF8110041EA002004B2214601205D
:1012400000F064FD9DF814109DF8130041EA0020A1
:1012500006B23146012000F053FD40F2032101980F
:10126000884220D19DF810009DF80F1040EA01201F
:1012700005B22946022000F03DFD9DF812109DF8B0
:10128000110041EA002004B22146022000F03EFD98
:101290009DF814109DF8130041EA002006B2314673
:1012A000022000F02DFD019800E094E0B0F5017FF0
:1012B00020D19DF810009DF80F1040EA012005B2E2
:1012C0002946032000F016FD9DF812109DF811002C
:1012D00041EA002004B22146032000F017FD9DF8EA
:1012E00014109DF8130041EA002006B23146032095
:1012F00000F006FD40F21121019888426BD19DF863
:101300000F109DF8100041EA002000B200EE100A14
:10131000B8EEC00ADFED320A80EE201ABDEEC10A37
:1013200010EE100A00B22F4908800846B0F90000FC
:1013300000F008FD9DF811109DF8120041EA002010
:1013400000B200EE100AB8EEC00ADFED250A80EE0A
:10135000201ABDEEC10A10EE100A00B22249088020
:101360000846B0F9000000F0E3FC9DF813109DF86A
:10137000140041EA002000B200EE100AB8EEC00AE4
:10138000DFED170A80EE201ABDEEC10A10EE100A3A
:1013900000B2164908800846B0F9000000F0E6FCEB
:1013A0009DF815109DF8160041EA002000B200EEED
:1013B000100AB8EEC00ADFED0A0A80EE201ABDEE70
:1013C000C10A10EE100A00B2094908800846B0F9B7
:1013D000000000F0C1FC06B070BD000000680040D5
:1013E0000000C842780100207A0100207C01002022
:1013F0007E0100202DE9F0418AB004460D461646D4
:101400001F46DDF840800121022005F0CDFA0121C0
:10141000880605F0D9FA0121880605F0E5FA0021D1
:101420004FF0806005F0E0FA4FF440500890022041
:101430008DF8240000208DF8260003208DF825006B
:1014400001208DF8270008A92D4804F011F9092280
:101450000C212B4804F054F909220D21284804F0EE
:101460004FF900208DF81A0001208DF81B00002094
:101470008DF81C008DF81D008DF81E008DF81F00E2
:101480008DF816808DF817408DF818608DF819507A
:10149000ADF8147005A91B4800F025FA0E208DF850
:1014A0000E0000208DF80F0001208DF810000020A4
:1014B000ADF80400ADF80600ADF80800ADF80A007C
:1014C000ADF80C0001208DF8110001A800F0EEF835
:1014D000012202210B4800F0FDF940208DF80000A8
:1014E00004208DF8010000208DF8020001208DF805
:1014F0000300684605F08EF800200AB0BDE8F081D0
:101500000004024000680040F0B585B004460D4676
:1015100016461F464FF40070009000208DF808001A
:101520008DF8090008208DF80A00200A8DF80B00BC
:10153000E1B28DF80C10290A8DF80D10E9B28DF882
:101540000E10310A8DF80F10F1B28DF81010390A13
:101550008DF81110F9B28DF812106946024800F0AA
:10156000C4FA05B0F0BD0000006800402DE9F0416C
:1015700004460D4616461F4640F2FF200C490860FF
:1015800000200872487208208872200AC872084633
:101590000473290A417385730021C1730174417476
:1015A00081740146034800F0A0FABDE8F081000014
:1015B000040E0220006400402DE9F04104460D466F
:1015C00016461F4640F2FF100C49086000200872C2
:1015D000487208208872200AC87208460473290AD3
:1015E00041738573310AC1730674390A4174877473
:1015F0000146034800F079FABDE8F081180E022098
:1016000000640040B1F5007F3AD00FDC202928D0DB
:1016100006DC01291CD004291DD0082940D11DE079
:10162000402921D0B1F5807F3AD126E0B1F5004FB5
:1016300031D006DCB1F5806F25D0B1F5006F2FD128
:1016400024E0B1F5803F12D0B1F5003F28D111E080
:10165000154A826025E00822C26022E01022C260A2
:101660001FE0082202611CE01022026119E008223A
:10167000426016E01022426013E00422426010E053
:10168000042242600DE0042242600AE000228261EE
:101690000422426005E0002282610422426000E0F0
:1016A00000BF00BF704700000101010010B500211C
:1016B000837A012202FA03F13D4A126842F00102E4
:1016C0003B4B1A603A4A1C3212688A43384B1C332F
:1016D0001A60027BCAB9364A0C3212688A43344B0C
:1016E0000C331A604288C38842EA0343304A4032CE
:1016F000847A42F834300288838842EA03432C4AD1
:101700004032847A02EBC4025360027B012A19D171
:10171000274A0C3212680A43254B0C331A60428860
:10172000038842EA0343224A4032847A42F8343042
:10173000C288838842EA03431D4A4032847A02EB1E
:10174000C4025360C27A3AB9194A121D12688A4318
:10175000174B1B1D1A6006E0154A121D12680A433A
:10176000134B1B1D1A60028932B9114A14321268D8
:101770008A430F4B14331A600289012A06D10C4A9E
:10178000143212680A430A4B14331A60427B012A4E
:1017900006D1074A1C3212680A43054B1C331A60F3
:1017A000034A126822F00102014B1A6010BD0000CA
:1017B0000066004070B504460D460026606928406A
:1017C000002871D0B5F5807F5CD010DC082D35D0B5
:1017D00006DC012D20D0022D24D0042D72D127E06B
:1017E000102D31D0202D35D0402D6BD138E0B5F5FE
:1017F000004F60D009DCB5F5007F49D0B5F5806FAA
:101800004CD0B5F5006F5DD14FE0B5F5803F2DD0E0
:10181000B5F5003F56D12FE0A0682D4902F076F9CA
:10182000064651E0E068032102F070F906464BE0FD
:10183000E068082102F06AF9064645E0E0681021F8
:1018400002F064F906463FE02069032102F05EF9E8
:10185000064639E02069082102F058F9064633E0CF
:101860002069102102F052F906462DE06068082137
:1018700002F04CF9064627E06068102102F046F9B4
:10188000064621E0A069012102F040F906461BE06E
:10189000A069022102F03AF9064615E0A069042188
:1018A00002F034F906460FE00FE0A069702102F063
:1018B0002DF9064608E06068042102F027F9064683
:1018C00002E0FFE7002600BF00E00026304670BDC2
:1018D000010101001AB143690B43436102E043690E
:1018E0008B434361704730B50246002000231468E3
:1018F00024F002041460146844F00104146000E051
:101900005B1C546804F001041CB94FF6FF74A34239
:10191000F6D1546804F001040CB900206CE08C7915
:10192000012C04D1146844F08004146003E01468AE
:1019300024F080041460CC79012C04D1146844F0A4
:101940004004146003E0146824F0400414600C7A2E
:10195000012C04D1146844F02004146003E01468DE
:1019600024F0200414604C7A012C04D1146844F053
:101970001004146003E0146824F0100414608C7ADE
:10198000012C04D1146844F00804146003E01468C6
:1019900024F008041460CC7A012C04D1146844F0BB
:1019A0000404146003E0146824F0040414608C78C8
:1019B000A407CD7844EA05640D7944EA05444D79DD
:1019C00044EA05540D886D1E2C43D461146824F03C
:1019D00001041460002300E05B1C546804F001045F
:1019E0001CB14FF6FF74A342F6D1546804F0010411
:1019F0000CB1002000E0012030BD10B500F5D87317
:101A000003EB01131B6803F004031372137A53B939
:101A100000F5D87303EB01131B6840F2FF7404EA6E
:101A20005353136009E000F5D87303EB01131B68EF
:101A30006FF0604404EAD303536000F5D87303EBFE
:101A400001131B6803F00203537200F5D87303EB14
:101A500001135B6803F00F03937200F5D87303EB77
:101A600001135B681B0AD37400F5D87303EB0113F1
:101A70009B68D37200F5D87303EB01139B681C0AB3
:101A8000147300F5D87303EB01139B681C0C54739B
:101A900000F5D87303EB01139B681B0E937300F5DD
:101AA000D87303EB0113DB68D37300F5D87303EB32
:101AB0000113DB681C0A147400F5D87303EB0113DF
:101AC000DB681C0C547400F5D87303EB0113DB685E
:101AD0001B0E937421B9C36843F02003C36003E075
:101AE000036943F02003036110BD10B502460020D6
:101AF000936803F08063B3F1806F00D110E09368C6
:101B000003F00063B3F1006F01D1012008E0936896
:101B100003F08053B3F1805F01D1022000E0042084
:101B2000042874D002F5C07303EB00131B6803F0A4
:101B3000010402F5C07303EB00131C600B7A7BB940
:101B40004B7A0C8843EA445302F5C07404EB00144A
:101B50002468234302F5C07404EB0014236010E0F2
:101B60000B7A4C6843EAC4034C7A234302F5C074F1
:101B700004EB00142468234302F5C07404EB001442
:101B800023608B7A03F00F038B7202F5C07303EBB3
:101B900000135B6823F00F0402F5C07303EB00131E
:101BA0005C6002F5C07303EB00135B688C7A23431F
:101BB00002F5C07404EB001463608B7B1C064B7B46
:101BC00044EA03440B7B44EA0323CC7A234302F523
:101BD000C07404EB0014A3608B7C1C064B7C44EAAD
:101BE00003440B7C44EA0323CC7B234302F5C074FB
:101BF00004EB0014E36002F5C07303EB00131B68F1
:101C000043F0010402F5C07303EB00131C6010BD28
:101C100010B5114C94ED030ABDEEC00A10EE104A47
:101C200023B20D4C94ED020ABDEEC00A10EE104A2C
:101C300022B2094C94ED010ABDEEC00A10EE104A22
:101C400021B2054C94ED000ABDEEC00A10EE104A18
:101C500020B2FFF759FC10BD3C1202200348007867
:101C600008B9012070470020FCE700008001002037
:101C70009FED0A0A0A4880ED000A9FED080A09480C
:101C800080ED000A9FED050A074880ED000A9FEDF0
:101C9000030A064880ED000A7047000000000000BB
:101CA000F4010020A0010020A4010020A8010020D0
:101CB00010B50D48007D00F0010020B10A48007DFC
:101CC00000F0200018B90020084908700BE001203E
:101CD00007490870032140F6B83000F071FB42F26A
:101CE000283000F09FFF10BD601702208101002006
:101CF00080010020014A22F81010704718020020CD
:101D0000014A22F8101070472002002000EE101A3D
:101D1000B8EEC00A024A02EB800282ED000A704768
:101D20008C11022010B543F2C820FFF7FBF810BD5C
:101D300000EE100AB8EEC00A014981ED000A7047B2
:101D40006C01002000EE100AB8EEC00A014981EDD6
:101D5000000A70476801002000EE100AB8EEC00AC1
:101D6000014981ED000A70477401002000EE100A5D
:101D7000B8EEC00A014981ED000A704770010020E9
:101D80002DE9F04FDDE90DC8DDF83C90DDE90B47AA
:101D9000DDE909564FF0000A07E011F80AB0CAF170
:101DA000020E00F80EB00AF1010ABAF1030F04DACC
:101DB00011F80AB0BBF1000FEFD190F803B02BF08F
:101DC000380B0BF1380B80F803B090F803B062F3D6
:101DD000020B80F803B0B0F803B063F3891BA0F8DE
:101DE00003B090F804B065F3850B80F804B0B0F848
:101DF00007B067F3090BA0F807B0B0F808B06CF3B0
:101E00008C0BA0F808B0B0F809B068F34F1BA0F82D
:101E100009B0B0F804B066F38E1BA0F804B0B0F8B7
:101E200005B064F3CF1BA0F805B04FF0000A09E03D
:101E300099F800B000F10F0E0EF80AB009F101098F
:101E40000AF1010AA245F3D3BDE8F08F0FB430B513
:101E500091B04FF6FF700490302214A905A8FEF748
:101E60008CFC02ACA5208DF808003320ADF80900E9
:101E7000324800788DF80B00FF220421204603F041
:101E8000ADFC8DF80C0040F20130ADF80D004FF4C0
:101E90008870ADF800002A480078ADF802002948A3
:101EA0000088ADF8040000BFBDF8102007212046CF
:101EB00003F068FC04906C46BDF810200621204613
:101EC00003F060FC049005ACBDF810202D212046E5
:101ED00003F058FC049002AC002504E0207806F0E2
:101EE000CDFE641C6D1C072DF8D36C46002504E064
:101EF000207806F0C3FE641C6D1C062DF8D305ACDB
:101F0000002504E0207806F0B9FE641C6D1C2D2D20
:101F1000F8D304AC002504E0207806F0AFFE641C82
:101F20006D1C022DF8D305480078401C0349087049
:101F3000002011B030BC5DF814FB00002801002027
:101F4000290100202A01002010B501205249087003
:101F500000241BE004EBC401504A02EBC100DFED9A
:101F6000500A9FED500A504A002104F091FC04EB06
:101F7000C4014E4A02EBC100DFED490A9FED490A58
:101F80004B4A002104F084FC601CC4B2042CE1DB49
:101F9000DFED480AB0EE080A474A0021474804F03E
:101FA00077FCDFED440AB0EE080A454A00214548B7
:101FB00004F06EFC44499FED450A45480BF014FAC5
:101FC00044499FED420A44480BF00EFAB0EE000A75
:101FD000424880ED000AB8EE000A414880ED000A50
:101FE000B7EE080A3F4880ED000ABFEE080A3E48F7
:101FF00080ED000AB7EE000A3C4880ED000ABFEE13
:10200000000A3B4880ED000A9FED3A0A3A4880ED0D
:10201000000A9FED380A394880ED000A9FED380A22
:10202000384880ED000ABAEE040A374880ED000A0D
:10203000B3EE020A354880ED000A9FED350A80EDC7
:10204000010A9FED340A80ED020AB3EE020A80ED28
:10205000030A9FED2F0A80ED040A9FED2E0A80ED02
:10206000050AB3EE020A80ED060A9FED290A80ED0B
:10207000070A9FED280A80ED080AB3EE020A80EDF8
:10208000090A9FED230A80ED0A0A9FED220A80EDDE
:102090000B0A0AF07DF910BD800100205C0E0220C1
:1020A0000000FA4400007A46643901087C0F0220DF
:1020B00070390108CDCCCC3D7C3901089C10022040
:1020C00088390108E4100220943901086F12033B9B
:1020D0002C110220983901083C110220B401002083
:1020E000B8010020BC010020C0010020C401002074
:1020F000C801002000A00C46D8010020DC0100200F
:1021000000007042E8010020F0010020CC11022004
:102110000AD7A33D0000000010B56C4800780128E4
:1021200004D16B49087000206849087000F0CAFDAE
:102130006848007807280CD2DFE800F0043D0C6EF8
:102140009571850000F0BEFD0A2142F2283000F0B2
:1021500037F9B9E06048808A00F4007010B90120B6
:102160005E4908705C48808A00F4007080B15B486A
:10217000007801280CD100205849087058480068A0
:10218000401C574908600846007800F001000860CC
:102190005348006840B103204D4908700A2142F2BB
:1021A000283000F00DF905E00120494908700020B1
:1021B0004849087088E04848808A00F4807010B967
:1021C0000120484908704448808A00F4807080B13A
:1021D0004448007801280CD1002042490870424848
:1021E0000068401C404908600846007800F0010083
:1021F00008603D48006840B10220354908700A2156
:1022000042F2283000F0DCF805E001203049087087
:1022100000203049087057E0FFF74AFD54E004F011
:10222000EDF818B900202B4908700BE00020284970
:102230000870012140F2DC5000F0C2F84FF4FA605F
:1022400000F0F0FC40E002F029F930B9002021490B
:10225000087001201E49087004E000201C49087025
:10226000FFF706FD30E01C48808A00F4005010B9EA
:1022700001201E4908701848808A00F4005080B17F
:102280001A48007801280CD1002018490870184815
:102290000068401C164908600846007800F00100FC
:1022A00008601348006840B10420094908700A21F9
:1022B00042F2283000F084F805E00120044908705B
:1022C00000200449087000BF00BF10BD9C01002021
:1022D0008001002081010020601702208801002079
:1022E0008C01002090010020940100208201002038
:1022F000840100202DE9F0412DED0A8B05460C46A6
:1023000016461F469FED2B0AB0EE408AB4F9000036
:102310000FF0BEFF41EC1C0B9FED270B53EC102B75
:1023200010F02AF841EC1B0BB0EE4B0AF0EE6B0AF2
:1023300009F0DEFAB0EE40AAF0EE60AA9FED1E0BA7
:1023400053EC102B51EC1A0B10F016F841EC190B52
:102350000FF07AFA08EE100A012D0BD1B7EE000A41
:10236000B4EEC08AF1EE10FA13D22088304400B2E5
:1023700020800EE0B5EEC08AF1EE10FA09DD20886B
:10238000C01B00B22080B4F90000002801DA002050
:102390002080B7EE001ADFED070AB0EE480A0AF017
:1023A0000AF9B0EE408AB0EE480ABDEC0A8BBDE8EF
:1023B000F081000000000000333333333333C33F78
:1023C0002DE9F0412DED108B86B004460F46B7EE97
:1023D000000AB0EE409A00EE104AB8EEC00ADF489C
:1023E00080ED000ADE490F800EF0DAFFDD4908605B
:1023F000DD48006810F0BEFD41EC1B0BB0EE4B0A4F
:10240000F0EE6B0A09F004FAB0EE40AAF0EE60AA12
:102410009FEDD60B53EC102B51EC1A0B10F04BF92F
:102420007BD2D44890ED000A20EE000A10EE101A7C
:10243000084610F09FFD41EC1F0BCB48006810F0E0
:1024400099FD41EC1E0BB0EE4E0AF0EE6E0A09F05B
:10245000DFF9B0EE40CAF0EE60CAC648006810F07E
:1024600089FD41EC1D0B53EC1C2B10F081FA41EC63
:102470001B0B9FEDBE0B53EC102B0FF047FB41ECF9
:102480001A0BB948006810F075FD41EC1E0BB0EE58
:102490004E0AF0EE6E0A09F0BBF9B0EE40CAF0EE5B
:1024A00060CAB448006810F065FD41EC1D0B53ECA8
:1024B0001C2B10F05DFA41EC1B0B9FEDAC0B53ECA9
:1024C000102B0FF023FB53EC1A2BCDE900019DEDEF
:1024D000000B51EC100B0FF04FFF53EC1F2BCDE90D
:1024E00002019DED020B51EC100B0FF041FCCDE908
:1024F00004019DED040B51EC100B0FF0A5F909EE52
:10250000100AB7EE001ADFED9C0AB0EE490A0AF095
:1025100052F8B0EE409A04E0FFE7B7EE000AB0EEE2
:10252000409A9648007D00F0010010B100209449C7
:1025300008809248007D00F0020010B1002091490F
:1025400008808E48007D00F0080010B100208E4900
:1025500008808A48007D00F0040010B100208B49FB
:1025600008807F4800880FF0B7FE41EC1B0B9FED01
:10257000880B53EC102B0FF0FBFB41EC1A0B0FF008
:10258000B5FD0FFA80F87D49097DC1F3C0004FF415
:10259000C87342467D49FFF7ADFEDFED7F0A20EEAE
:1025A000200ABDEEC00A10EE100A00B200EE100ABA
:1025B000B8EEC00A794880ED000A694800880FF03B
:1025C0008BFE41EC1B0B9FED720B53EC102B0FF0AD
:1025D000CFFB41EC1A0B0FF089FD0FFA80F8674929
:1025E000097DC1F380004FF4C87342466649FFF786
:1025F00081FEDFED6B0A20EE200ABDEEC00A10EE70
:10260000100A00B200EE100AB8EEC00A654880ED6C
:10261000000A5A49097DC1F340004FF4FA7350494A
:1026200009880AB25649FFF765FEDFED5B0A20EE26
:10263000200ABDEEC00A10EE100A00B200EE100A29
:10264000B8EEC00A584880ED000A4C49097D01F0F7
:1026500001004FF4FA73424909880AB24949FFF769
:1026600049FEDFED4F0A20EE200ABDEEC00A10EE53
:10267000100A00B200EE100AB8EEC00A4B4880ED16
:10268000000A484890ED000A4448D0ED000A30EEB8
:10269000200A20EE090ABDEEC00A10EE100A05B2AB
:1026A000414890ED000A4148D0ED000A30EE200A82
:1026B00020EE090ABDEEC00A10EE100A06B200EEC6
:1026C000105AB8EEC00ADFED3A0A20EE208A00EE7A
:1026D000106AB8EEC00ADFED360A60EE208AB0EE6E
:1026E000480A34480AF056FEB0EE680A32480AF04A
:1026F00051FE9FED320AB4EEC08AF1EE10FA0CD210
:102700009FED2F0AB4EEC08AF1EE10FA05DD9FEDC1
:102710001A0A10EE100A274948609FED280AF4EEC5
:10272000C08AF1EE10FA0CD29FED250AF4EEC08AB1
:10273000F1EE10FA05DD9FED100A10EE100A1E49A9
:1027400048601C4840681F4908601B4840681E4993
:10275000086006B0BDEC108BBDE8F081D801002008
:10276000F801002040020020A80100200000000025
:1027700000008940DC0100200000000060170220FA
:10278000FE010020FC0100200002002002020020C7
:10279000000000000000F83F000080C4100200208C
:1027A000000080440C0200200802002004020020E7
:1027B0006F12833B2C1102203C1102200BD7233DCA
:1027C0000BD723BDA0010020A401002010B52DEDE2
:1027D000088B9FED4D0AB0EE408A9FED4B0AF0EE5C
:1027E000408A002400BF3EE0484800EB840090EDA2
:1027F000000A10EE101A084610F0BCFB41EC1B0B4F
:10280000B0EE4B0AF0EE6B0A09F002F8B0EE409A17
:10281000F0EE609A18EE100A10F0ACFB41EC1A0BC7
:1028200053EC192B0FF06CFD1BD2384800EB8400E1
:1028300090ED000A10EE101A084610F09BFB41ECD8
:102840001A0BB0EE4A0AF0EE6A0A08F0E1FFB0EEA9
:10285000409AF0EE609A51EC190B0EF0F5FF08EE7D
:10286000100A601CC4B2042CBEDBB0EE000AB4EE49
:10287000C08AF1EE10FA17DDB0EE000AC0EE080AC9
:10288000F0EE608A00240DE0204800EB840090ED1B
:10289000000A20EE280A1D4800EB840080ED000AA3
:1028A000601CC4B2042CEFDB002416E0174901EBD6
:1028B000840191ED001AF0EE410A154901EB840103
:1028C00091ED001AB0EE410A04EBC401114A02EB8B
:1028D000C10003F0E5FE601CC4B2042CE6DB00245A
:1028E0000DE004EBC4000B4901EBC00090ED080AB9
:1028F000094800EB840080ED000A601CC4B2042C7F
:10290000EFDBBDEC088B10BD000000006C11022055
:102910004C1102205C0E02203C12022010B52DED5D
:10292000088B9FEDB50AB0EE408A9FEDB30AF0EE3A
:10293000408A002400BF3EE0B04800EB840090EDE8
:10294000000A10EE101A084610F014FB41EC1B0BA5
:10295000B0EE4B0AF0EE6B0A08F05AFFB0EE409A68
:10296000F0EE609A18EE100A10F004FB41EC1A0B1E
:1029700053EC192B0FF0C4FC1BD2A04800EB8400D1
:1029800090ED000A10EE101A084610F0F3FA41EC30
:102990001A0BB0EE4A0AF0EE6A0A08F039FFB0EE00
:1029A000409AF0EE609A51EC190B0EF04DFF08EED4
:1029B000100A601CC4B2042CBEDBB0EE000AB4EEF8
:1029C000C08AF1EE10FA1FDD8D480088E0B9B0EE44
:1029D000000AC0EE080AF0EE608A002411E09FEDC4
:1029E000890AC8EE800A854800EB840090ED000A51
:1029F00020EE800A814800EB840080ED000A601C14
:102A0000C4B2042CEBDBC6E0B0EE000AB4EEC08A20
:102A1000F1EE10FA20DD7A48008801281CD1B0EED2
:102A2000000AC0EE080AF0EE608A002411E0F7EE1A
:102A3000080A88EEA00A714800EB8400D0ED000A75
:102A400020EE200A6D4800EB840080ED000A601C37
:102A5000C4B2042CEBDB9EE0B0EE000AB4EEC08AF8
:102A6000F1EE10FA20DD6648008802281CD1B0EE95
:102A7000000AC0EE080AF0EE608A002411E09FED23
:102A8000620AC8EE800A5D4800EB840090ED000AFF
:102A900020EE800A594800EB840080ED000A601C9B
:102AA000C4B2042CEBDB76E0B0EE000AB4EEC08AD0
:102AB000F1EE10FA20DD5248008803281CD1B0EE58
:102AC000000AC0EE080AF0EE608A002411E0DFED93
:102AD0004F0A88EEA00A494800EB8400D0ED000AB6
:102AE00020EE200A454800EB840080ED000A601CBF
:102AF000C4B2042CEBDB4EE0B0EE000AB4EEC08AA8
:102B0000F1EE10FA20DD3E48008804281CD1B0EE1A
:102B1000000AC0EE080AF0EE608A002411E0DFED42
:102B20003C0A88EEA00A354800EB8400D0ED000A8C
:102B300020EE200A314800EB840080ED000A601C82
:102B4000C4B2042CEBDB26E0B0EE000AB4EEC08A7F
:102B5000F1EE10FA1FDD2A48008805281BD1B0EEDF
:102B6000000AC0EE080AF0EE608A002411E0DFEDF2
:102B7000290A88EEA00A214800EB8400D0ED000A63
:102B800020EE200A1D4800EB840080ED000A601C46
:102B9000C4B2042CEBDB002416E0184901EB8401DD
:102BA00091ED001AF0EE410A1B4901EB840191ED11
:102BB000001AB0EE410A04EBC401184A02EBC1004E
:102BC00003F06EFD601CC4B2042CE6DB00240DE0B3
:102BD00004EBC400114901EBC00090ED080A104855
:102BE00000EB840080ED000A601CC4B2042CEFDB13
:102BF000BDEC088B10BD0000000000006C1102202D
:102C00009E010020CDCCCC3F3333B33F6666A63F58
:102C10009A99993FCDCC8C3F5C1102207C0F022009
:102C20003C12022010B52DED028B04469FED1E0ACA
:102C3000B0EE408A00EE104AB8EEC00A1B4880EDA4
:102C4000000A1B480078012810D101F0F1FBB0EE1A
:102C5000408AF0EE480A9FED140A164803F020FD62
:102C6000B1EE400A144880ED000A19E01348B0F9AB
:102C70000C0000EE900AF8EEE00A114890ED001A00
:102C800060EE810AB0EE600A084890ED001AD0EDBF
:102C9000000AF1EE600A09F08EFC074880ED000A98
:102CA000BDEC028B10BD000000000000DC01002024
:102CB00080010020E4100220A801002060170220FB
:102CC000E801002010B55548808A00F4007010B962
:102CD0000120534908705148808A00F4807010B96F
:102CE0000120504908704D48808A00F4005010B906
:102CF00001204D4908704948808A00F48070C8B1AD
:102D00004648007D00F02000A0B946480078012820
:102D100010D100204349087044480068401C4349D2
:102D200008600846007800F0010008600120404972
:102D3000087058E03948808A00F40070C8B13748FC
:102D4000007D00F02000A0B935480078012810D19E
:102D500000203349087037480068401C3549086036
:102D60000846007800F00100086002203049087031
:102D700039E02A48808A00F40050C8B12748007D15
:102D800000F02000A0B928480078012810D10020C8
:102D90002549087028480068401C274908600846F3
:102DA000007800F0010008600420214908701AE052
:102DB0001A48007D00F0010040B11848007D00F085
:102DC000200018B103201A4908700CE003F016FB2C
:102DD00018B105201649087005E001F05FFB10B13D
:102DE0000620134908700D48007D00F0200038B11E
:102DF00012480078032803D000201049087002E030
:102E000001200E4908700A2142F22830FFF7D8FA53
:102E100042F22830FFF706FF10BD000060170220C5
:102E200088010020900100208201002094010020F0
:102E3000810100208C0100208401002080010020FD
:102E40009FED3E0A3E4880ED000A9FED3C0A3D485A
:102E500080ED000A9FED390A3B4880ED000A9FEDA6
:102E6000370A3A4880ED000A9FED390A394880ED6B
:102E7000000A394890ED000AB1EE400A3748D0ED1B
:102E8000000A30EE200A3648D0ED000A2C4890EDBA
:102E9000001A00EE810A2F48D0ED000A20EE200A29
:102EA000304880ED000A2C4890ED000AB1EE400A4F
:102EB0002A48D0ED000A30EE600A2948D0ED000A19
:102EC000204890ED001A00EE810A2248D0ED000A59
:102ED00020EE200A234880ED010A1F4890ED000AE9
:102EE0001E48D0ED000A30EE200A1D48D0ED000A41
:102EF000154890ED001A00EE810A1648D0ED000A40
:102F000020EE200A174880ED020A134890ED000ACF
:102F10001248D0ED000A30EE600A1148D0ED000AE8
:102F20000A4890ED001A00EE810A0A48D0ED000A26
:102F300020EE200A0B4880ED030A70473F84F840DA
:102F400058020020540200205C0200206002002091
:102F5000D0A2184064020020A0010020A40100209B
:102F6000A80100206C11022010B502F02DFEDFED4B
:102F7000260AB4EE600AF1EE10FA03D100202349CC
:102F800008803FE002F020FEDFED210AB4EE600A87
:102F9000F1EE10FA03D101201C49088032E002F062
:102FA00013FEDFED1C0AB4EE600AF1EE10FA03D155
:102FB00002201649088025E002F006FEDFED160A21
:102FC000B4EE600AF1EE10FA03D103200F49088035
:102FD00018E002F0F9FDDFED110AB4EE600AF1EE3F
:102FE00010FA03D10420094908800BE002F0ECFD3F
:102FF000DFED0B0AB4EE600AF1EE10FA02D1052003
:103000000249088010BD0000000048429E010020D7
:103010000000704200008C420000A0420000C84244
:103020000000F04270B52DED028B3648B0F9060075
:103030000A2805DC3348B0F9060010F10A0F03DA5C
:103040003048B0F9065000E000252E48B0F90400E1
:103050000A2805DC2B48B0F9040010F10A0F03DA46
:103060002848B0F9044000E0002400EE104AB8EE11
:10307000C00ADFED250A20EE208A00EE105AB8EED5
:10308000C00ADFED220A60EE208AB0EE480A20482E
:103090000AF080F9B0EE680A1E480AF07BF99FED4D
:1030A0001E0AB4EEC08AF1EE10FA0CD29FED1B0A94
:1030B000B4EEC08AF1EE10FA05DD9FED190A10EEAC
:1030C000100A134948609FED140AF4EEC08AF1EE2D
:1030D00010FA0CD29FED110AF4EEC08AF1EE10FA4C
:1030E00005DD9FED0F0A10EE100A0A4948600848F6
:1030F00040680C490860074840680B490860BDEC0F
:10310000028B70BD601702206F1283BB6F12833B6E
:103110002C1102203C1102200BD7233D0BD723BDDD
:1031200000000000A0010020A401002010B52DED3A
:10313000108BF2480078022872D19FEDF10AB0EEB0
:10314000409A9FEDEF0AF0EE409A9FEDED0AB0EE47
:1031500040AA09F063F9EB4880ED000AEA48D0ED97
:10316000000AB0EE600AFDF753F9B0EE409AE64867
:10317000D0ED000AB0EE600AFDF70EF9F0EE409ACD
:10318000E14890ED030AB0EE40AAE04890ED000A55
:1031900029EE800ADE48D0ED000AB0EE408A09EE42
:1031A000208AB1EE490AD948D0ED000A20EE200A63
:1031B000D748D0ED000AF0EE408A49EEA08A9FED94
:1031C000D51ADFEDD50ACF4890ED000A0AF0D4FDFC
:1031D000F0EE40AAF0EE6A0AB0EE4A0ACF4803F0D9
:1031E0005FFACF4880ED000ACE4890ED001ACE4835
:1031F000D0ED000AB0EE480A0AF020F9C34880ED8D
:10320000000ACA4890ED001AC948D0ED000AB0EE95
:10321000680A0AF013F9BE4880ED000A6AE1FFE788
:10322000B648007801282BD1FDF7C0FDC148D0ED8C
:10323000000A9FEDB30AB94803F032FAB1EE400A32
:10324000B74880ED000AB74890ED001AB648D0EDB7
:10325000000AAE4890ED000A0AF0F0F8AB4880EDA5
:10326000000AB24890ED001AB148D0ED000AA84813
:1032700090ED000A0AF0E2F8A54880ED000A39E175
:103280009E480078D0BBFDF791FDAB48B0F9000037
:1032900000EE100AB8EEC00ADFEDA80A20EE200A00
:1032A0009F4880ED000AA64890ED001AA548D0ED91
:1032B000000A9B4890ED000A0AF0C0F8984880ED9B
:1032C000000A984890ED001A9748D0ED000A8F4800
:1032D00090ED000A0AF0B2F88C4880ED000A93489D
:1032E00090ED001A9248D0ED000A894890ED000A4E
:1032F0000AF0A4F8864880ED000AFBE0FFE77F486B
:10330000007803288AD1814800680FF033FE41EC31
:103310001A0BB0EE4A0AF0EE6A0A08F079FAB0EE3B
:10332000409AF0EE609A9FED880B53EC102B51EC15
:10333000190B0EF0E5FF1ED2754800680FF01AFE5B
:1033400041EC1A0BB0EE4A0AF0EE6A0A08F060FA95
:10335000B0EE409AF0EE609A9FED7B0B53EC102B91
:1033600051EC190B0EF0CCFF05D2B7EE000A6C48F9
:1033700080ED000ABEE0B7EE000A694880ED000A61
:10338000FDF714FD624800680FF0F4FD41EC1C0BE2
:103390006F4800680FF0EEFD41EC1F0BB0EE4F0AD6
:1033A000F0EE6F0A08F040FAB0EE40EAF0EE60EAA4
:1033B00051EC1E0B0EF03CFA41EC1D0B53EC1C2B98
:1033C0000EF0DAFF41EC1A0B504800680FF0D2FD06
:1033D00041EC1C0B5E4800680FF0CCFD41EC1E0B6D
:1033E000B0EE4E0AF0EE6E0A08F0AEF9B0EE40DA3A
:1033F000F0EE60DA53EC1C2B51EC1D0B0EF0BCFF11
:1034000041EC1B0B53EC1A2B0EF080FB41EC190B1B
:103410000EF01AFA08EE100A3D4800680FF0AAFDF7
:1034200041EC1C0B4A4800680FF0A4FD41EC1E0B58
:10343000B0EE4E0AF0EE6E0A08F086F9B0EE40DA11
:10344000F0EE60DA53EC1C2B51EC1D0B0EF094FFE8
:1034500041EC1A0B2D4800680FF08CFD41EC1C0B61
:103460003B4800680FF086FD41EC1E0BB0EE4E0AA3
:10347000F0EE6E0A08F0D8F9B0EE40DAF0EE60DA5D
:1034800053EC1C2B51EC1D0B0EF076FF41EC1B0B8B
:1034900053EC1A2B0EF03AFB41EC190B0EF0D4F959
:1034A00008EE900A1F4890ED001A1F48D0ED000A60
:1034B000B0EE480A09F0C2FF144880ED000A1B482C
:1034C00090ED001A1A48D0ED000AB0EE680A09F033
:1034D000B5FF0F4880ED000A194890ED001A194811
:1034E000D0ED000A0E4890ED000A09F0A7FF0C4845
:1034F00080ED000ABDEC108B10BD000080010020A3
:1035000000000000AC01002098160220A00100205D
:10351000A4010020DB0F4940DB0F49C09C100220B2
:10352000A8010020B4010020B8010020BC01002047
:10353000C0010020B0010020601702200AD7233C00
:10354000C4010020C8010020FCA9F1D24D62503F07
:10355000CC01002010B51A48C07A032809D10120F7
:1035600018490870032009F05DFF022009F04EFFA2
:1035700025E01348C07A01280DD1124908709FED4B
:10358000120A124880ED000A022009F04BFF0320C6
:1035900009F03CFF13E00A48C07A02280FD104F07A
:1035A00061F80320074908709FED070A074880ED7E
:1035B000000A022009F036FF032009F027FF10BDA2
:1035C000601702208001002000000000AC010020F4
:1035D00010B52DED108BF7480078022871D19FEDC2
:1035E000F60AB0EE409A9FEDF40AF0EE409A9FED95
:1035F000F20AB0EE40AA08F011FFF048D0ED000A40
:10360000B0EE600AFCF704FFB0EE409AEB48D0ED54
:10361000000AB0EE600AFCF7BFFEF0EE409AE74801
:1036200090ED030AB0EE40AAE54890ED000A29EEBD
:10363000800AE448D0ED000A09EE200AE04880ED57
:10364000000AB1EE490AD0ED000A20EE200ADD485A
:10365000D0ED000A09EEA00A80ED000A9FEDDA1A0B
:10366000DFEDDA0ADA4890ED000A0AF085FBF0EEA9
:1036700040AAF0EE6A0AB0EE4A0AD64803F010F803
:10368000D54880ED000AD54890ED001AD448D0ED19
:10369000000ACB4890ED000A09F0D0FEC84880ED42
:1036A000000AD04890ED001ACF48D0ED000AC54876
:1036B00090ED000A09F0C2FEC24880ED000A0BE25C
:1036C000FFE7BC48007801282BD1FDF76FFBC74806
:1036D000D0ED000A9FEDB80AC54802F0E1FFB1EE57
:1036E000400ABD4880ED000ABC4890ED001ABC4875
:1036F000D0ED000AB24890ED000A09F09FFEB048F4
:1037000080ED000AB74890ED001AB748D0ED000AE6
:10371000AC4890ED000A09F091FEAA4880ED000A3D
:10372000DAE1A4480078D0BBFDF740FBB148B0F91E
:10373000000000EE100AB8EEC00ADFEDAF0A20EE7E
:10374000200AA54880ED000AAC4890ED001AAC486C
:10375000D0ED000AA04890ED000A09F06FFE9E48E7
:1037600080ED000A9D4890ED001A9D48D0ED000ABA
:10377000934890ED000A09F061FE914880ED000A3F
:10378000984890ED001A9848D0ED000A8D4890EDC9
:10379000000A09F053FE8B4880ED000A9CE1FFE728
:1037A0008448007804287DD1FDF700FB8F48D0EDD8
:1037B000000A9FED810A8E4802F072FFB1EE400AC6
:1037C000854880ED000A7F4800680FF0D3FB41EC8C
:1037D0001C0B8C4800680FF0CDFB41EC1F0BB0EECA
:1037E0004F0AF0EE6F0A08F01FF8B0EE40EAF0EE74
:1037F00060EA51EC1E0B0EF01BF841EC1D0B53EC74
:103800001C2B0EF0B9FD41EC1A0B6D4800680FF04F
:10381000B1FB41EC1C0B7B4800680FF0ABFB41ECAB
:103820001E0BB0EE4E0AF0EE6E0A07F08DFFB0EE02
:1038300040DAF0EE60DA53EC1C2B51EC1D0B0EF06D
:103840009BFD41EC1B0B53EC1A2B0EF05FF941EC86
:10385000190B0DF0F9FF08EE100A5A4800680FF036
:1038600089FB41EC1C0B674800680FF083FB41ECBF
:103870001E0BB0EE4E0AF0EE6E0A07F065FFB0EEDA
:1038800040DAF0EE60DA53EC1C2B51EC1D0B0EF01D
:1038900073FD41EC1A0B4A4800680FF06BFB41ECDA
:1038A0001C0B00E04AE0574800680FF063FB41EC56
:1038B0001E0BB0EE4E0AF0EE6E0A07F0B5FFB0EE4A
:1038C00040DAF0EE60DA53EC1C2B51EC1D0B0EF0DD
:1038D00053FD41EC1B0B53EC1A2B0EF017F941EC86
:1038E000190B0DF0B1FF08EE900A3C4890ED001A5C
:1038F0003B48D0ED000AB0EE480A09F09FFD304881
:1039000080ED000A374890ED001A3748D0ED000AE4
:10391000B0EE680A09F092FD2A4880ED000A3748A7
:1039200090ED001A3648D0ED000A2B4890ED000AC1
:1039300009F084FD284880ED000ACDE01D4800789C
:10394000032836D11E4800680FF014FB41EC1A0B17
:10395000B0EE4A0AF0EE6A0A07F05AFFB0EE409A5B
:10396000F0EE609A9FED280B53EC102B51EC190BE5
:103970000EF0C6FC4CD2134800680FF0FBFA41EC85
:103980001A0BB0EE4A0AF0EE6A0A07F041FFB0EEF9
:10399000409AF0EE609A9FED1C0B53EC102B51EC0B
:1039A000190B0EF0ADFC33D2B7EE000A0A4880EDD9
:1039B000000A91E08001002000000000981602201B
:1039C000A0010020A4010020DB0F4940DB0F49C00B
:1039D000AC0100209C100220A8010020B4010020AE
:1039E000B8010020BC010020C0010020B00100206F
:1039F000E4100220601702200AD7233CC4010020F3
:103A0000C8010020CC010020FCA9F1D24D62503F3A
:103A10009FED330A334880ED000AFDF7C7F91FED2B
:103A20001A0AB0EE409A1FED1C0AF0EE409A2E489A
:103A3000D0ED000AB0EE600AFCF7EAFCB0EE409A66
:103A40002948D0ED000AB0EE600AFCF7A5FCF0EEC4
:103A5000409A264890ED000A29EE800A2448D0EDCD
:103A6000000AB0EE408A09EE208AB1EE490A1F48EA
:103A7000D0ED000A20EE200A1D48D0ED000AF0EE3D
:103A8000408A49EEA08A1B4890ED001A1A48D0EDF2
:103A9000000AB0EE480A09F0D1FC144880ED000A93
:103AA000164890ED001A1648D0ED000AB0EE680AEC
:103AB00009F0C4FC0E4880ED000A124890ED001A8F
:103AC0001148D0ED000A074890ED000A09F0B6FC55
:103AD000044880ED000A00BFBDEC108B10BD000053
:103AE0000AD7A33CA801002098160220A0010020BC
:103AF000A4010020B4010020B8010020BC01002076
:103B0000C0010020C4010020C8010020024600209E
:103B100002EA01030BB1012000E0002070472DE90B
:103B2000F0470C4608AD95E8E010DDF83080002144
:103B300006E014F80190C1F1020A00F80A90491C4D
:103B4000032904DA14F80190B9F1000FF1D190F8CB
:103B5000039029F0380909F1100980F8039090F8D2
:103B6000039062F3020980F80390B0F8039063F3C6
:103B70008919A0F8039090F8049065F3850980F8FE
:103B80000490B0F8079066F30909A0F80790B0F820
:103B9000089067F38C09A0F80890B0F809906CF3CE
:103BA0004F19A0F80990B0F80B9068F30909A0F834
:103BB0000B90BDE8F08700000246094B9A4201D203
:103BC000084801E00648103801F000531BB1064BCD
:103BD0000B40C36002E0044B0B4083607047000061
:103BE00010640240006002407D0F7D0F21B1026829
:103BF00042F00102026003E0026822F0010202606A
:103C000070470000016821F001010160002101609E
:103C100041608160C1600161212141614A4988425E
:103C200004D13D21484A103A91608CE04649183150
:103C3000884205D14FF47461434A103A916082E0A2
:103C400041493031884205D14FF474113E4A103A4F
:103C5000916078E03C494831884205D14FF0746169
:103C6000394A103A91606EE037496031884204D198
:103C70003649354A103AD16065E033497831884297
:103C800004D13349304A103AD1605CE02E4990317A
:103C9000884204D12F492C4A103AD16053E02A4976
:103CA000A831884205D14FF03D51274A103AD160E2
:103CB00049E02949884204D13D21274A083A116048
:103CC00041E025491831884205D14FF47461224AF8
:103CD000083A116037E020493031884205D14FF46D
:103CE00074111D4A083A11602DE01B494831884281
:103CF00005D14FF07461184A083A116023E0164963
:103D00006031884204D11149134A121F11601AE030
:103D100011497831884204D10D490F4A121F1160B0
:103D200011E00D499031884204D10A490A4A121F14
:103D3000116008E00849A831884204D14FF03D5194
:103D4000054A121F11607047106002403D000020BC
:103D5000400F002000003D201064024021B10268A5
:103D600042F48022026003E0026822F480220260B2
:103D7000704722B1036843F40023036003E0036843
:103D800023F400230360016170470146486880B254
:103D90007047014600200A6802F400220AB101209F
:103DA00000E000207047000010B500220268134BAD
:103DB0001A40CC680B6823434C6923438C69234326
:103DC000CC6923430C6A23434C6A23438C6A234304
:103DD0004C6B23438C6B23431A430260426922F0ED
:103DE0000702D1E90B3423431A4342610B69436054
:103DF0004B6883608B68C36010BD00003F801CF07F
:103E000041607047704700000F48807A02280FD148
:103E10000E480078012803D102200C4908700AE0FE
:103E20000A480078022806D100200849087002E0FC
:103E300001200649087005480078022801D10120B8
:103E400070470020FCE70000601702207E0400207D
:103E500010B53E48808A00F4806010B901203C49CA
:103E600008803A48808A00F4806098B13848008819
:103E700001280FD100203649088036480088401CB0
:103E800034490880088800EBD0714910A0EB41014B
:103E9000304A11802F480088C8B301F08BFE0F28EC
:103EA00003D1012004F09EF816E001F083FE1228F1
:103EB00003D1022004F096F80EE001F07BFE1628F4
:103EC00003D1032004F08EF806E001F073FE1E28F3
:103ED00002D1042004F086F81F4A204B1B8802EB15
:103EE000830292ED000ABDEEC00A10EE102A11B254
:103EF000194A1A4B1B8802EB830292ED000ABDEEB1
:103F0000C00A10EE102A10B200F02EF81DE0FFE7F4
:103F1000114A92ED000ABDEEC00A10EE102A11B24D
:103F20000D4A92ED000ABDEEC00A10EE102A10B242
:103F300000F01AF803F096FB9FED090A094880ED9E
:103F4000000A9FED070A80ED010A10BD60170220EC
:103F5000C2040020C0040020140400202C0400200F
:103F6000000000003804002000F57A72034B1A604C
:103F700001F57A721B1D1A6070470000340800407A
:103F800010B500240DF00CFA04462148808A00F494
:103F9000807028B91E48808A00F40040002836D07E
:103FA0001B48808A00F4807078B11A480068201A93
:103FB000B0F5FA7F04D918480088401C16490880DB
:103FC0000DF0EEF91349086013E01148808A00F4FF
:103FD000004070B111480068201AB0F5FA7F04D98A
:103FE0000D480088401E0C4908800DF0D9F90B4996
:103FF000086009480088052802DB0520064908807A
:1040000005480088012802DC01200349088010BD12
:1040100060170220440500202C04002048050020E1
:1040200010B50446494800EB8400D0ED000A48482A
:1040300030F9140000EE100AB8EEC00A30EEC00AE3
:10404000444800EB840080ED000A434800EB840004
:1040500090ED000A3F4800EB8400D0ED000A30EEFE
:10406000200A3D4800EB840080ED000A394800EB4F
:10407000840090ED000A04EB4400384901EB800015
:10408000D0ED000A20EE200A354800EB840080EDD8
:10409000000A344800EB840090ED000A2D4800EB44
:1040A0008400D0ED000A04EB440001EB800090EDA9
:1040B000011A00EE810A2B4800EB840080ED000A13
:1040C000284800EB8400D0ED000AB0EE600A2648D4
:1040D00090ED001AD0ED000AF1EE600A08F06BFADC
:1040E000204800EB840080ED000A1D4800EB8400AE
:1040F00090ED000A1B4800EB8400D0ED000A30EE82
:10410000200A1A4800EB840080ED000A174800EBF3
:104110008400D0ED000AB0EE600A154890ED001A58
:10412000D0ED000AF1EE600A08F045FA0F4800EB06
:10413000840080ED000A0D4800EB840090ED000A39
:104140000C4800EB840080ED000A10BD380400200C
:1041500040040020440400204C040020C01702202A
:10416000540400205C040020FC0400206C040020A7
:10417000F80400207404002010B50020FFF750FF61
:104180000120FFF74DFF10BD014A22F810107047C3
:104190004004002010B50446FFF736FE10B3012C92
:1041A00006D1234890ED010A224880ED000A22E062
:1041B000052C06D11E4890ED050A1E4880ED000A28
:1041C00019E0032C06D11A4890ED030A194880ED36
:1041D000000A10E0042C06D1154890ED030A15489A
:1041E00080ED000A07E0022C05D1114890ED020A8B
:1041F000104880ED000A2CB90D4890ED000A0D48DA
:1042000080ED000A00F01AF80B4890ED000ABDEEB0
:10421000C00A10EE100A01B2074890ED000ABDEE88
:10422000C00A10EE100A00B2FFF79EFE10BD00009B
:10423000140400208004002088040020224890ED0F
:10424000000A2248D0ED000AB4EEE00AF1EE10FABE
:1042500018D21D4890ED000AF0EE000A30EE200A58
:1042600080ED000A90ED000A1848D0ED000AB4EE87
:10427000E00AF1EE10FA19DD90ED000A124880ED27
:10428000000A13E0104890ED000A1048D0ED000A33
:10429000B4EEE00AF1EE10FA08DD0B4890ED000AEA
:1042A000F0EE000A30EE600A80ED000A064890ED5C
:1042B000000AB5EEC00AF1EE10FA03D29FED040A2F
:1042C00080ED000A70470000880400208004002070
:1042D0000000000010B5244806F0E8FC234806F072
:1042E00071FD234806F0A2FD06F0C2FDD8B12148B9
:1042F00090ED040A1C48D0ED000A30EE600A1E481A
:1043000080ED000A1B4890ED010A1848D0ED000A24
:1043100030EE200A194880ED000A06F0C1FC0DF0CD
:104320003FF8174908601748C07B012818D1164983
:104330000860104890ED010A0C48D0ED000A30EEFC
:10434000600A124880ED010A0A4890ED040A064806
:10435000D0ED000A30EE200A0C4880ED030A02E09E
:1043600000200949086010BDD8020020E0020020AA
:10437000E8020020981602209C030020A0030020E1
:10438000EC020020BC090220A402002080160220BA
:1043900000207047002070471CB50020009001905D
:1043A0002148007848B9214890ED000A8DED000AB7
:1043B00090ED030A8DED010A22E01B4800780128E8
:1043C0000DD11A4890ED010AF7EE000A20EE200AFE
:1043D0008DED000A90ED030A8DED010A10E0124800
:1043E000007803280CD1114890ED020AF7EE000A7C
:1043F00020EE200A8DED000A90ED030A8DED010AF2
:104400009DED010ABDEEC00A10EE102A11B29DED1D
:10441000000ABDEEC00A10EE102A10B200231A46A0
:10442000FDF7A4F81CBD0000800200202017022028
:10443000DFED150AB0EE600A1448B0F9000000EE96
:10444000900AF8EEE00A9FED121AF4EEC10AF1EEBE
:1044500010FA12D20D48B0F9000000EE900AF8EE02
:10446000E00A9FED0C1AF4EEC10AF1EE10FA04DD39
:10447000DFED050AB0EE600A04E00748D0ED000A5F
:10448000B0EE600A704700000000000098020020B3
:1044900000A88B45008888459816022007480078B8
:1044A000022807D005480078052803D00348007883
:1044B000042801D1012070470020FCE78102002080
:1044C00003480078042801D1012070470020FCE750
:1044D0008102002010B50CF063FF85490968401A7D
:1044E000642802D90020834908700CF059FF8049E4
:1044F0000860002080490870B1EE002ADFED7F1AC5
:104500009FED7F1ADFED7F0A9FED7F0A7F4800F065
:1045100011FBB0EE082ADFED791A9FED791ADFED75
:10452000790A9FED790A7A4800F004FBB0EE082A78
:10453000DFED781A9FED781ADFED720A9FED720AAF
:10454000764800F0F7FAB0EE082AF6EE001A9FED72
:10455000721ADFED6C0A9FED6C0A714800F0EAFAFE
:10456000DFED700A9FED680A6F4A00216F4802F084
:104570008FF9DFED6C0A9FED640A6B4A00216C48ED
:1045800002F086F9B0EE082AF7EE001A9FED691ADC
:10459000DFED5C0A9FED5C0A674800F0CBFA9FED07
:1045A000672AF0EE081A9FED631ADFED560A9FEDB9
:1045B000560A634800F0BEFAB7EE002ADFED4F1A44
:1045C0009FED601ADFED4F0A9FED4F0A5E4800F045
:1045D000B1FAB7EE002ADFED491A9FED5A1ADFED66
:1045E000490A9FED490A594800F0A4FADFED550A3F
:1045F0009FED450A564A0021564802F049F9DFED81
:10460000510A9FED410A524A0021534802F040F9F5
:104610003F4801F029F93D4801F026F93F4801F0F3
:1046200023F93F4801F020F9404802F061F9404881
:1046300002F05EF9424801F017F93F4801F014F921
:10464000414801F011F9414801F00EF9414802F0EA
:104650004FF9414802F04CF9F0EE080AB0EE080AB2
:104660003E4A00213E4802F013F93E4890ED010A0F
:104670003D4880ED010A3B4890ED050A3A4880ED3F
:10468000040A384890ED010A374880ED020A1948BB
:10469000007870B9012017490870324890ED040A7B
:1046A000314880ED030A2F4890ED000A2E4880ED36
:1046B000000A2D4890ED030AF0EE400A2B4890EDD9
:1046C000001A9FED2B0A02F039F9274880ED030A02
:1046D00090ED000AF0EE400A264890ED001A9FED9A
:1046E000170A02F02BF9204880ED000A10BD0000E7
:1046F000900300208D03002080020020CDCCCC3D13
:1047000000803B450000C84200401C46C813022000
:10471000981302209A99993E0000FA4488140220C6
:10472000E81402200000FA43A839010818150220F5
:10473000A8150220000048442814022000000000B0
:10474000F813022000007A4458140220B814022002
:104750009C39010860150220F0150220B4390108C7
:10476000381602209816022080160220A802002087
:10477000920A06C0AC02002010B500200A49087059
:1047800001F048FE30B901F039FE18B900200749A0
:10479000087008E09FED060A064880ED000A9FEDCC
:1047A000060A80ED020A10BD80020020810200206E
:1047B00000000000FC170220920A06C010B5444A0F
:1047C0004449454809F06CFB444A4549454801F0D5
:1047D00003FC454890ED010A3D48D0ED000A30EE5B
:1047E000C00A414880ED000A404890ED010A39486E
:1047F000D0ED000A30EEC00A3C4880ED000A3C488B
:1048000090ED010A3448D0ED000A30EEC00A384875
:1048100080ED000A354890ED000ADFED360A20EE03
:10482000200ADFED350A80EE201A344880ED051AA3
:104830002D4890ED000ADFED2F0A20EE200ADFED73
:104840002E0A80EE201A2D4880ED011A2548B0F975
:104850000000693000EE100AB8EEC00ADFED250A4C
:1048600020EE200ADFED240A80EE201A244880ED95
:10487000031A1A48B0F900000D3800EE100AB8EE1D
:10488000C00ADFED1C0A20EE200ADFED1B0A80EED5
:10489000201A1B4880ED001A1248B0F90000693058
:1048A0000A2190FBF1F000EE100AB8EEC00A14489D
:1048B00080ED040A0948B0F900000D3890FBF1F0D2
:1048C00000EE100AB8EEC00A0D4880ED010A10BDD6
:1048D00088020020840200208C0200209202002026
:1048E0009402002090020020740300207C0300202A
:1048F00084030020DB0F4940000034439816022057
:10490000D816022010B50CF04BFD4E490860FDF79B
:10491000A5F910B901F072FD18B100204A490870DC
:1049200002E00120484908704848007D00F020005E
:1049300078BB4648808A00F4804050B34148006804
:1049400043490968884225D90120424908703D48F9
:10495000006800F5FA703E4908603C48007D00F0B0
:10496000040028B19FED3C0A3C4880ED000A68E055
:104970003648007D00F0080028B19FED390A37481D
:1049800080ED000A5DE09FED360A344880ED000AB4
:1049900057E0FFE72D48007D00F02000C0BB2B480A
:1049A000007D00F0400028B1264800682D490968C4
:1049B00088420AD82548007D00F0800040B3214895
:1049C000006829490968884223D9072021490870CD
:1049D0001E48007D00F0400050B11A480068FA30CF
:1049E000204908609FED210A214880ED000A28E057
:1049F0001648007D00F0800000B312480068FA30CD
:104A0000194908609FED1B0A194880ED000A18E05B
:104A1000FFE701F0FFFC10B901F0F0FC18B1032032
:104A20000C4908700DE00948C07C012807D10748EF
:104A3000807A032803D008200649087001E000F0BE
:104A40005BFC10BD8405002080020020601702205E
:104A50008805002081020020DB0F49407C050020F2
:104A6000DB0F49C08C05002090050020DB0FC93FFB
:104A700080050020DB0FC9BF10B52DED048B044667
:104A8000B0EE408AF0EE608AB0EE419A24B99FED14
:104A9000260ABDEC048B10BD84ED048AC4ED038AA4
:104AA00078EEC89A9FED211ADFED210AB0EE690A6F
:104AB00009F062F984ED050A94ED000AD4ED050AC7
:104AC00020EE200A84ED080A94ED090AD4ED010ACB
:104AD00094ED051A00EE810A84ED090A94ED020AAC
:104AE00020EE090A84ED0A0AD4ED070AB0EE600A46
:104AF00004F1240007F067FB94ED080AD4ED090ADD
:104B000030EE200AD4ED0A0A30EE200A84ED0B0ABA
:104B1000D4ED060AB0EE600A04F12C0007F053FB56
:104B200094ED0B0AB5E7000000000000DB0F4940E0
:104B3000DB0F49C000B9704780ED001AC0ED011AC3
:104B400080ED022ADFED062AC0ED052ADFED042AFA
:104B5000C0ED042AC0ED070A80ED060A00BFEAE7AF
:104B60000000000010B58D480078002864D18C4802
:104B700090ED000ADFED8B0A80EE201A80ED001A1E
:104B800090ED030ADFED870A80EE201A80ED031A0C
:104B9000D0ED001AB0EE611A8348D0ED001AF0EEA5
:104BA000610A8248D0ED001AB0EE610A8048FFF732
:104BB00063FF804880ED000A7948D0ED031AB0EE1B
:104BC000611A7948D0ED031AF0EE610A7748D0ED0A
:104BD000041AB0EE610A7848FFF74EFF754880ED81
:104BE000030A90ED001AF0EE410A6D4890ED001AAC
:104BF000B0EE410A714801F053FD714880ED000AA2
:104C00006C4890ED031AF0EE410A654890ED031AE6
:104C1000B0EE410A6B4801F043FD694880ED030A9C
:104C200090ED000A684880ED000A654890ED030A9F
:104C3000654880ED030AB0E058480078012854D157
:104C40005748D0ED011AB0EE611A5748D0ED011A5D
:104C5000F0EE610A5548D0ED011AB0EE610A5B48EA
:104C6000FFF70AFF534880ED010A4D48D0ED031AC3
:104C7000B0EE611A4C48D0ED031AF0EE610A4B48D1
:104C8000D0ED041AB0EE610A4B48FFF7F5FE494833
:104C900080ED030A90ED011AF0EE410A404890EDD4
:104CA000011AB0EE410A4A4801F0FAFC444880ED8E
:104CB000010A404890ED031AF0EE410A384890EDA1
:104CC000031AB0EE410A3F4801F0EAFC3C4880ED8F
:104CD000030A90ED010A3C4880ED010A384890ED46
:104CE000030A394880ED030A57E02C48007803286E
:104CF00053D12B48D0ED011AB0EE611A2A48D0EDFD
:104D0000021AF0EE610A2948D0ED011AB0EE610AEC
:104D10002E48FFF7B1FE274880ED020A2048D0ED6B
:104D2000031AB0EE611A2048D0ED031AF0EE610AC2
:104D30001E48D0ED041AB0EE610A1F48FFF79CFE32
:104D40001C4880ED030A90ED021AF0EE410A144867
:104D500090ED011AB0EE410A1D4801F0A1FC18487F
:104D600080ED020A134890ED031AF0EE410A0C4858
:104D700090ED031AB0EE410A124801F091FC104880
:104D800080ED030A90ED020A0F4880ED020A0C48FC
:104D900090ED030A0C4880ED030A10BD800200204C
:104DA000D81602200000C842801602209816022061
:104DB00098130220F0160220F8130220A8150220F2
:104DC00008170220F015022020170220C813022025
:104DD0001815022010B58D480078002864D18C4841
:104DE00090ED000ADFED8B0A80EE201A80ED001AAC
:104DF00090ED030ADFED870A80EE201A80ED031A9A
:104E0000D0ED001AB0EE611A8348D0ED001AF0EE32
:104E1000610A8248D0ED001AB0EE610A8048FFF7BF
:104E20002BFE804880ED000A7948D0ED031AB0EEE1
:104E3000611A7948D0ED031AF0EE610A7748D0ED97
:104E4000041AB0EE610A7848FFF716FE754880ED47
:104E5000030A90ED001AF0EE410A6D4890ED001A39
:104E6000B0EE410A714801F01BFC714880ED000A68
:104E70006C4890ED031AF0EE410A654890ED031A74
:104E8000B0EE410A6B4801F00BFC694880ED030A63
:104E900090ED000A684880ED000A654890ED030A2D
:104EA000654880ED030AB0E058480078012854D1E5
:104EB0005748D0ED011AB0EE611A5748D0ED011AEB
:104EC000F0EE610A5548D0ED011AB0EE610A54487F
:104ED000FFF7D2FD534880ED010A4D48D0ED031A8B
:104EE000B0EE611A4C48D0ED031AF0EE610A4B485F
:104EF000D0ED041AB0EE610A4B48FFF7BDFD4948FA
:104F000080ED030A90ED011AF0EE410A404890ED61
:104F1000011AB0EE410A494801F0C2FB444880ED55
:104F2000010A404890ED031AF0EE410A384890ED2E
:104F3000031AB0EE410A3F4801F0B2FB3C4880ED55
:104F4000030A90ED010A3C4880ED010A384890EDD3
:104F5000030A394880ED030A57E02C4800780328FB
:104F600053D12B48D0ED011AB0EE611A2A48D0ED8A
:104F7000021AF0EE610A2948D0ED011AB0EE610A7A
:104F80002748FFF779FD274880ED020A2048D0ED39
:104F9000031AB0EE611A2048D0ED031AF0EE610A50
:104FA0001E48D0ED041AB0EE610A1F48FFF764FDF9
:104FB0001C4880ED030A90ED021AF0EE410A1448F5
:104FC00090ED011AB0EE410A1C4801F069FB184847
:104FD00080ED020A134890ED031AF0EE410A0C48E6
:104FE00090ED031AB0EE410A124801F059FB104847
:104FF00080ED030A90ED020A0F4880ED020A0C488A
:1050000090ED030A0C4880ED030A10BD80020020D9
:10501000D81602200000C8428016022098160220EE
:10502000E8140220F0160220B8140220A81502206D
:1050300008170220F0150220201702201815022060
:1050400010B52DED088B9B48B0F900000A2805DC4F
:105050009848B0F9000010F10A0F04DA954800886A
:105060009549088002E00020934908809148B0F9F2
:1050700002000A2805DC8F48B0F9020010F10A0F7F
:1050800004DA8C4840888D49088002E000208B4972
:1050900008808948B0F9000000EE100AB8EEC00A96
:1050A000DFED870A20EE200A864880ED000A83485B
:1050B000B0F90000404200EE100AB8EEC00ADFED81
:1050C000800A20EE200A804880ED000A7F480078A0
:1050D000F0BB03F087FC7E48D0ED000A90ED000A9B
:1050E0007C4801F0DDFA7C4880ED000A7B4890EDB9
:1050F000010A794880ED010A90ED000ADFED780A97
:10510000B4EEE00AF1EE10FA04DD9FED750A80EDD1
:10511000000A0DE0704890ED000ADFED720AB4EE6F
:10512000E00AF1EE10FA03D29FED6E0A80ED000A5C
:10513000694890ED030A6448D0ED000A30EE200A79
:10514000654880ED030A654890ED050A624800E075
:105150001EE080ED040A90ED030ADFED630AB4EE71
:10516000E00AF1EE10FA04DD9FED5F0A80ED030A1C
:105170009DE0594890ED030ADFED5C0AB4EEE00AC9
:10518000F1EE10FA03D29FED590A80ED030A8EE08A
:105190004E48007801285CD103F024FC4E4890ED85
:1051A000010A4848D0ED000A30EE200A4A4880ED56
:1051B000010A454800680DF0DDFE41EC1B0B9FED38
:1051C0004C0B53EC102B0DF0D7F841EC190B424867
:1051D00090ED030A10EE101A08460DF0CBFE41ECDC
:1051E0001A0B53EC192B0CF091FC41EC180B0CF042
:1051F0002BFB3949C860084690ED030A3248D0EDD0
:10520000000A30EE200A084680ED030A334890ED8C
:10521000050A084680ED040A90ED030ADFED320A24
:10522000B4EEE00AF1EE10FA04DD9FED2F0A80EDF6
:10523000030A3CE0284890ED030ADFED2C0AB4EEA7
:10524000E00AF1EE10FA32D29FED280A80ED030A4F
:105250002DE01E480078032829D103F0C3FB58B184
:105260001E4890ED010A1C4880ED020A1B4890ED93
:10527000040A194880ED030A174890ED020A114804
:10528000D0ED000A30EE200A134880ED020A90EDBE
:10529000030A0D48D0ED000A30EE200A0E4880EDDA
:1052A000030A0E4890ED010A0B4880ED010ABDEC9F
:1052B000088B10BD60170220B8020020BA0200203F
:1052C0009C53C9B6B0020020B40200208002002026
:1052D000B001002038160220801602209816022005
:1052E000920A063F920A06BFDB0FC93EDB0F49C098
:1052F000000000000000F83F10B56848007838BB97
:10530000674890ED030A6748B0F90E0000EE900A76
:10531000F8EEE00A9FED641A00EE810A604880ED25
:10532000030A90ED000A5F48B0F90C0000EE900A05
:10533000F8EEE00A9FED5D1A00EE810A584880ED14
:10534000000A5B4890ED010A554880ED010AA3E090
:105350005448B0F90C0000EE100AF8EEC00A5548A7
:1053600090ED000A9FED511A00EE810A80ED000ACF
:105370004C48B0F90E0000EE100AF8EEC00A4E4894
:1053800090ED000A9FED481A00EE810A80ED000AB8
:105390004448808970B949480068401C4749086002
:1053A00008460068192808D99FED450A414880ED54
:1053B000000A02E00020414908603A48C08970B9FB
:1053C00040480068401C3F490860084600681928AA
:1053D00008D99FED3B0A384880ED000A02E0002022
:1053E000384908602D480078032838D12D48808A34
:1053F00000F4007058B12E4890ED010A284880ED65
:10540000020A2B4890ED040A254880ED030A24483F
:10541000D0ED020AB0EE600ADFED2B0A254802F05B
:1054200085F81F48D0ED020A30EE200A80ED020A0E
:10543000D0ED030AB0EE600ADFED230A1E4802F049
:1054400075F81748D0ED030A30EE200A80ED030A04
:10545000174890ED010A124880ED010A1CE00F4840
:105460000078012818D10E48D0ED010AB0EE600A8C
:10547000DFED150A0F4802F059F8094880ED010ADE
:10548000D0ED030AB0EE600ADFED0F0A0A4802F021
:105490004DF8034880ED030A10BD00008002002093
:1054A000801602206017022017B751B917B7D1B87C
:1054B00098160220C0020020C4020020940300209D
:1054C0000000000098030020CDCC4C3D70B5044690
:1054D0000D46012C0AD1144805800146098888B27E
:1054E00008F088FC114880ED040A1CE0DCB9104883
:1054F00005800146098888B208F07CFC0B4880EDE5
:10550000000A0B48B0F9000000EE100AB8EEC00A1D
:10551000084880ED000A0649098888B208F06AFC4C
:10552000024880ED030A70BD960200209816022002
:10553000980200203817022001280BD1114A11804F
:10554000B2F9002000EE102AB8EEC00A0E4A82ED31
:10555000020A16E0A8B90D4A11800D4AB2F90020DE
:1055600000EE102AB8EEC00A0A4A82ED000A074A85
:10557000B2F9002000EE102AB8EEC00A024A82ED0D
:10558000000A70479E020020C8160220A0020020D8
:10559000980200203817022001280BD10C4A1180F4
:1055A000B2F9002000EE102AB8EEC00A094A82EDD6
:1055B000020A0BE050B9084A1180B2F9002000EE4F
:1055C000102AB8EEC00A034A82ED000A70470000B4
:1055D0009A020020B81602209C02002008B500BFE5
:1055E0000BF0DEFE009002F067FC10B9FEF772FFD0
:1055F00014E01B48C07A012809D11948C07C012851
:1056000002D108201749087000F0CAFB06E001F03B
:1056100035FBFFF715FD0020124908701048C07CCB
:10562000012802D1FFF7D6FB01E0FFF79BFAFEF756
:10563000B3FE0D48D0F80A0000EE100ADFED0B0AA9
:10564000B4EEE00AF1EE10FA02DB08F08BFB01E0A9
:1056500008F07EFB022168460BF074F8C0E70000FA
:105660006017022081020020BC09022000C079449A
:10567000F0B50A4600210023002400BF3DE00125CB
:1056800005FA01F3156805EA03049C4234D1056864
:105690004F000326BE40B543056015794E00B54066
:1056A0000668354305601579012D02D01579022D64
:1056B00016D185684F000326BE40B54385605579F5
:1056C0004E00B540866835438560456801268E40AA
:1056D000B5434560456896798E40B6B2354345601E
:1056E000C5684F000326BE40B543C560D5794E005E
:1056F000B540C6683543C560491C1029BFD3F0BD0D
:10570000F0B5002300244D07ED0E02FA05F3CE108C
:1057100000F1200555F826504E07F70E0F26BE4023
:10572000B543CF1000F1200646F82750CE1000F107
:10573000200555F8265045EA0304CE1000F1200557
:1057400045F82640F0BD4183704701837047000053
:1057500030B5034613B94FF6FF7030BD09E013F8BA
:10576000014B82EA0400C0B2054D35F8100080EA12
:105770002222081EA1F10101F1D11046EDE700003F
:105780006234010830B5034613B94FF6FF7030BDDF
:1057900009E013F8014B82EA0400C0B2054D35F868
:1057A000100080EA2222081EA1F10101F1D1104669
:1057B000EDE700006437010830B5034605E013F853
:1057C000010B80EA02040448025D081EA1F10105F4
:1057D000A9B2F4D1104630BD6133010830B503469B
:1057E00005E013F8010B80EA02040448025D081E7C
:1057F000A1F10101F5D1104630BD0000633601086A
:10580000164890ED000A1648D0ED000A30EE600A06
:10581000144880ED000A114890ED010A1048D0EDBF
:10582000010A30EE600A0F4880ED010A0B4890ED46
:10583000030A0B48D0ED040A30EE600A094880EDF7
:10584000020A064890ED040A0548D0ED050A30EE3C
:10585000600A044880ED030A7047000080160220A9
:10586000981602205017022000B970479FED090AD0
:1058700080ED040A80ED030A80ED050A9FED050A1C
:1058800080ED0A0A80ED090A80ED080A80ED0B0A16
:1058900000BFEAE70000000000BFFEE710B50020EF
:1058A0000F4908600F48006820F003000D490860A8
:1058B0000846006840F00100086000200A49C1F86D
:1058C0008002022006F028FF01200549086002201E
:1058D00006F022FF00200449C1F8840210BD000038
:1058E0008482424200140240008042421CB50121E1
:1058F000202001F059F80320009001208DF80400C9
:1059000000208DF8060003208DF8050001208DF899
:10591000070069460448FFF7ABFE01200349086011
:105920000349C1F880021CBD001402408482424237
:105930000080424210B500200F4908600F480068FF
:1059400020F003000D4908600846006840F001009F
:10595000086001200A49C1F88002022006F0DCFE3E
:10596000012005490860022006F0D6FE0020044907
:10597000C1F8840210BD000084824242001402403B
:105980000080424270B5054600241648006820F0A9
:10599000030014490860084600680860002616E005
:1059A000002011490860022006F0B6FE01200F49D0
:1059B000C1F884026006040E0B488438006808B100
:1059C000601CC4B2012006F0A7FE701CC6B2082EEF
:1059D000E6DB15B9FFF7AEFF01E0FFF75FFF2046FA
:1059E00070BD0000001402408482424200804242A6
:1059F00070B504461548006820F00300134908609C
:105A00000846006840F00100086000201049086066
:105A1000002517E0E0090E49091F08606006040E22
:105A2000022006F079FE01200A49C1F88402022012
:105A300006F072FE002006490860022006F06CFEA7
:105A4000681CC5B2082DE5DB70BD000000140240E3
:105A5000848242420080424210B50F48006820F024
:105A600003000D4908600846006840F00100086026
:105A700001200A4908600A49C1F88402042006F09E
:105A80004BFE002005490860042006F045FE00207A
:105A90000349C1F8840210BD0014024080824242D2
:105AA0000080424210B50F48006820F003000D4905
:105AB00008600846006840F00100086000200A49BC
:105AC00008600A49C1F88002042006F025FE012082
:105AD000054908600549C1F88002042006F01CFE53
